:100000000C942E000C949F050C949F050C949F0556
:100010000C949F050C949F050C949F050C949F05D0
:100020000C949F050C949F050C949F050C949F05C0
:100030000C949F050C949F050C949F050C949F05B0
:100040000C949F050C949F050C949F050C949F05A0
:100050000C949F05006000C4000B4C0011241FBECF
:10006000CFE5D8E0DEBFCDBFE4E5F0E040E017C06B
:10007000B591A59135912591059107FD0CC09591FC
:100080008591EF01F92FE82F05900D92A217B30784
:10009000D9F7FE0104C01D92A217B307E1F7EB35B3
:1000A000F40731F70E94CF020C945105F894FFCF6A
:1000B0004841505059204249525448444159000047
:1000C0000000000000000000000000000000000030
:0800D000000000000000000028
:1000D8002F923F924F925F926F927F928F929F9250
:1000E800AF92BF92CF92DF92EF92FF920F931F933E
:1000F800CF93DF93CDB7DEB72A970FB6F894DEBF5C
:100108000FBECDBF2B013C01B3018FEF68167806F7
:1001180061F420ED37E0249DC001259D900D349DAC
:10012800900D11240E941E0465C088E893E10E9486
:10013800C804072E000C880B990B0E945F030E94CD
:1001480017010E946C057A836983649CC001659CD1
:10015800900D749C900D11246AE070E00E94C80410
:10016800660F771F6B837C83872F880F880B89879F
:100178008D838E838F838887282E262F372F482FAD
:10018800582F642F742F842F922DA0E00E944505CC
:1001980089F184F1912C1A86312C412C512C612C37
:1001A800712C812CC39A89819A810E941E04C3985C
:1001B80089819A810E941E04292D3A85432D542D48
:1001C800652D762D872D982DA1E00E943905922E58
:1001D8003A87342E452E562E672E782E892EAB80E0
:1001E800BC80C984DD80EE80FF800885122D0E94C6
:1001F8005C05C4F22A960FB6F894DEBF0FBECDBFD9
:10020800DF91CF911F910F91FF90EF90DF90CF90EA
:10021800BF90AF909F908F907F906F905F904F901E
:060228003F902F900895A5
:10022E004F925F926F927F928F929F92AF92BF92F8
:10023E00CF92DF92EF92FF92CF93DF93CDB7DEB7DF
:10024E0028970FB6F894DEBF0FBECDBF6B017C01B1
:10025E00DC01CB0147E1B695A795979587954A9511
:10026E00D1F799278F579109873191059CF597FD05
:10027E0036C088248A94982C3FE7A32EB12C04C054
:10028E00B594A794979487948A95D2F7D501C40113
:10029E008C219D21AE21BF21892B8A2B8B2BD1F056
:1002AE0020E030E040E85BE7C701B6010E9466053A
:1002BE006D837E838F839887F7FC04C0C80CD91C8E
:1002CE00EA1CFB1C80949094A094B094C820D92072
:1002DE00EA20FB205C2D4D2D3E2D2F2D21C020E040
:1002EE0030E040E85BE7C701B6010E94660569830E
:1002FE007A838B839C83F7FC0FC0D701C601880FCE
:10030E00991FAA1FBB1F892B8A2B8B2B19F350E029
:10031E0040E030E82FE304C050E040E030E020E859
:10032E00652F742F832F922F28960FB6F894DEBF69
:10033E000FBECDBFDF91CF91FF90EF90DF90CF90AA
:10034E00BF90AF909F908F907F906F905F904F90E7
:02035E00089500
:100360000FC00E94730538F00E947A0520F0952393
:1003700011F00C9488050C949C0511240C948205B2
:100380000E94920470F3959FC1F3950F50E0551FA2
:10039000629FF001729FBB27F00DB11D639FAA27DA
:1003A000F00DB11DAA1F649F6627B00DA11D661F29
:1003B000829F2227B00DA11D621F739FB00DA11D4A
:1003C000621F839FA00D611D221F749F3327A00D04
:1003D000611D231F849F600D211D822F762F6A2FA0
:1003E00011249F5750409AF0F1F088234AF0EE0F05
:1003F000FF1FBB1F661F771F881F91505040A9F732
:100400009E3F510580F00C9488050C9482055F3F57
:10041000E4F3983ED4F3869577956795B795F7956D
:10042000E7959F5FC1F7FE2B880F911D96958795E5
:0404300097F908959B
:1004340011C00E94730538F00E947A0520F039F447
:100444009F3F19F426F40C949C050EF4E095E7FB09
:100454000C948805E92F0E94920458F3BA17620796
:1004640073078407950720F079F4A6F50C948105A9
:100474000EF4E0950B2EBA2FA02D0B01B9019001BB
:100484000C01CA01A0011124FF27591B99F0593FFF
:1004940050F4503E68F11A16F040A22F232F342F47
:1004A4004427585FF3CF469537952795A795F04095
:1004B4005395C9F77EF41F16BA0B620B730B840BAA
:1004C400BAF09150A1F0FF0FBB1F661F771F881F62
:1004D400C2F70EC0BA0F621F731F841F48F48795BA
:1004E40077956795B795F7959E3F08F0B0CF9395AC
:0E04F400880F08F09927EE0F979587950895C9
:100502006F927F928F92CF92DF92EF92141615061E
:10051200D4F56B01E82E440F551F440F551F3B01C4
:10052200882E640E751E811C57FD8A94F6015E2D7D
:100532000E942D050E946C000E9493050E97D9F42B
:1005420004C082E390E00E941E040E9493050E976D
:10055200C1F304C082E390E00E941E040E9493054E
:100562000E97C1F704C082E390E00E941E040E942D
:1005720093050E97C1F384E0C80ED11CE11CC6148A
:10058200D704E80499F688E893E10E941E04EF90EC
:0C059200DF90CF908F907F906F900895C5
:10059E00CF93DF93CDB7DEB7CC58D1090FB6F89411
:1005AE00DEBF0FBECDBFBB9A0E94F6030E948E0522
:1005BE0084E6E0E6F0E0DE01119601900D928A9558
:1005CE00E1F78E010B591F4F0F2EF0EBCF2EF0E0FF
:1005DE00DF2EF0E0EF2EF02D0F2EF9E1FF2EF02D95
:1005EE0058012FE0A20EB11C180180E8482ECE0152
:1005FE0001963C01E0E88E2E8FE0F601D8017E2DAB
:10060E000E942005F5012F2D11922A95E9F760E041
:10061E0080E00E94B404842DB1010E946C0449E173
:0C062E0050E0882DB3010E948102E6CF4D
:10063A009C01255031092330310510F401970895A2
:10064A009C01295031092330310510F4029708958D
:10065A0084309105A9F088309105A9F08C30910574
:10066A00A9F080319105A9F08D309105A9F08E305D
:10067A009105A9F08F309105A9F00097B1F008957E
:10068A008AE090E008958BE090E008958CE090E095
:10069A0008958DE090E008958EE090E0089580E05E
:1006AA0090E008958FE090E008958FEF9FEF08950E
:1006BA00E89409C097FB3EF49095809570956195F2
:1006CA007F4F8F4F9F4F9923A9F0F92F96E9BB27A8
:1006DA009395F695879577956795B795F111F8CF24
:1006EA00FAF4BB0F11F460FF1BC06F5F7F4F8F4F8F
:1006FA009F4F16C0882311F096E911C0772321F085
:10070A009EE8872F762F05C0662371F096E8862F1C
:10071A0070E060E02AF09A95660F771F881FDAF773
:0A072A00880F9695879597F90895BA
:100734000E949A0488F09F5798F0B92F9927B751CF
:10074400B0F0E1F0660F771F881F991F1AF0BA9571
:10075400C9F714C0B13091F00E948105B1E0089549
:100764000C948105672F782F8827B85F39F0B93F3B
:10077400CCF3869577956795B395D9F73EF4909524
:0E0784008095709561957F4F8F4F9F4F089520
:10079200CF93C82F15BA14BA45B381E090E09C01FB
:1007A2000C2E02C0220F331F0A94E2F7242B25BB22
:1007B20024B36C5F7F4F02C0880F991F6A95E2F7DE
:1007C200822B84BB8FE090E00E941E0423B330E0B2
:1007D20002C035952795CA95E2F781E090E020FFA7
:0A07E20002C080E090E0CF9108957E
:1007EC00B89AB99ABA9A80E190E00E941E0460E02F
:1007FC0080E30E94110585E090E00E941E0460E0F9
:10080C0080E30E94110581E090E00E941E0460E0EC
:10081C008CE30E94010560E08CE00E94010560E021
:10082C0086E00E94010560E081E00E9401050895C8
:10083C00CF93DF93EC0182E083BF1BC020E034E256
:10084C0044E759E467E177EB81ED98E30E94980562
:10085C009B01AC0160E070E080E893E40E946505C8
:10086C000E949A0362BF88B7816088BF08B600FEF9
:0E087C00FDCF219718F713BEDF91CF9108959D
:10088A000F931F93CF93DF9300E010E018C0BE01CF
:10089A00C8010E94C903009749F0000F111F000FF9
:1008AA00111FC00FD11FCE0101960CC02196C43072
:1008BA00D10569F70F5F1F4F0430110519F0C0E029
:0E08CA00D0E0E5CFDF91CF911F910F910895FF
:1008D800CF92DF92EF92A82FCB016C01EA2E2FEF77
:1008E800C21AD20AE20AFC018491A7FD80818823FA
:1008F80089F061E00E9401058FEFC81AD80AE80A5A
:10090800AE2DC6010197A109FC018491A7FD808144
:0C0918008111EFCFEF90DF90CF90089599
:1009240057FD9058440F551F59F05F3F71F047959C
:10093400880F97FB991F61F09F3F79F08795089581
:10094400121613061406551FF2CF4695F1DF08C0A0
:10095400161617061806991FF1CF869571056105BD
:040964000894089556
:10096800CF93C62F98E2899FC00D112460E082E0E2
:100978000E940105CC2331F060E084E10E9401056A
:08098800C150D1F7CF91089591
:1009900097FB072E16F4009407D077FD09D00E942C
:1009A000DC0407FC05D03EF4909581959F4F089597
:0809B000709561957F4F0895D9
:1009B800AA1BBB1B51E107C0AA1FBB1FA617B7077D
:1009C80010F0A61BB70B881F991F5A95A9F7809599
:0809D8009095BC01CD010895CA
:1009E000092E0394000C11F4882352F0BB0F40F43D
:1009F000BF2B11F460FF04C06F5F7F4F8F4F9F4F7D
:020A0000089557
:100A0200C098C19A11BA90B3C29A000000000000C7
:100A120011BA90B3C29899239CF30E9411050895CC
:100A2200662311F0C09A01C0C098C19882BB8FEFB3
:0E0A320081BBC29A000000000000C298089527
:100A4000992777FD05C005900D920197E1F708956C
:0A0A500001900D920197E1F708955F
:100A5A0057FD05C0659175918591959108956191AC
:080A6A007191819191910895B1
:100A72000024A7FD00942A0F301D401D501D601D4B
:080A8200701D801D901D0895F8
:100A8A000024A7FD00942A1730054005500560058B
:080A9A00700580059005089528
:100AA200EC010E94A4050E94A305CE010E94A505A7
:060AB200CE010E94A10527
:100AB8002A153B054C055D056E057F0580079107E6
:020AC80008958F
:0E0ACA005058BB27AA270E941A020C94F00471
:0E0AD8000E949A036894B1110C94820508954F
:0E0AE60000240A94161617061806090608952D
:0E0AF40000240A94121613061406050608952F
:0E0B0200E894BB2766277727CB0197F9089563
:0C0B100097F99F6780E870E060E00895AE
:0A0B1C0060E081E00E9401050895E9
:0A0B26000E9445040E941D0308957B
:080B30000E94B0010C94F004D6
:060B38009FEF80EC089520
:040B3E000C94000013
:040B42000E945600B7
:020B4600089510
:020B480008950E
:020B4A0008950C
:100B4C0001004B0201004B020200930202004B0217
:100B5C00020010030400BA0201004B0201004B0218
:100B6C000200930202004B02020070030400100307
:100B7C0001004B0201004B02020096040200DB0351
:100B8C00020010030200E4020200930201001604AA
:100B9C00010016040200DB030200100302007003C4
:040BAC00040010032E
:00000001FF
