:100000000C942D000C94321A0C94321A0C94321A5F
:100010000C94321A0C94321A0C94321A0C94321A30
:100020000C94321A0C94321A0C94321A0C94321A20
:100030000C94321A0C94321A0C94321A0C94321A10
:100040000C94321A0C94321A0C94321A0C94321A00
:100050000C94321A00600062800011241FBECFE5AC
:10006000D8E0DEBFCDBFE4E5F0E040E017C0B591D9
:10007000A59135912591059107FD0CC0959185912C
:10008000EF01F92FE82F05900D92A217B307D9F7CA
:10009000FE0104C01D92A217B307E1F7E935F4078A
:0E00A00031F70E94AF0C0C949E19F894FFCF1C
:1000AE004D4D2F44442F595959590025302A6C6C07
:1000BE00645F00494E56414C494420594541520017
:1000CE00494E56414C4944204D4F4E544800494EDE
:1000DE0056414C4944204441590048482F4D4D2F1C
:1000EE00535300494E56414C494420484F555200F7
:1000FE00494E56414C4944204D494E5554450049B0
:10010E004E56414C4944205345434F4E44004461A2
:10011E0074653A253032642F253032642F25303203
:10012E00640054696D653A253032643A2530326484
:10013E003A253032640054696D653A253032643A9E
:10014E00253032643A25303264414D0054696D6574
:10015E003A253032643A253032643A2530326450D2
:10016E004D0054696D653A31323A253032643A2584
:06017E00303264504D0018
:100184000000000080DE280080C84D0000A7760033
:1001940000349E008012C700809FEE00007E17018D
:1001A400805C400180E9670100C890010055B801F6
:1001B40068076C094C836A9074A07AC000806888D0
:0601C40000846C82008142
:0C01CA001F1E1F1E1F1F1E1F1E1F1F1DBB
:0701D600286E756C6C290016
:0601DD00286E696C290088
:0401E300474D540030
:1001E800A3EAB0E0EAEFF0E00C9411184C015901D1
:1001F800C756DF4F488359836A83C959D040212C99
:10020800312C6E012BE8C20ED11C85E2782E260116
:1002180030E8632ECE018D569F4FC456DF4F998329
:100228008883CC59D0409C0140E8CF55DF4F2883C4
:1002380039834A83C15AD040C756DF4F4881C959CC
:10024800D040C656DF4F5881CA59D040C556DF4FF7
:100258006881CB59D040FA01849167FD8081882359
:1002680009F4C9C3CF57DF4F19821882C158D0404B
:100278008FEF9FEFCD57DF4F99838883C358D040C6
:10028800CB57DF4F19821882C558D040A1E0B0E0A3
:10029800AC0FBD1FC957DF4FB983A883C758D040DB
:1002A800E0E8F0E0C757DF4FF983E883C958D0404A
:1002B800CA01A62FE12CF12CFC012491A7FD208175
:1002C80021111BC0E114F10401F19701C4010E943E
:1002D800E915C756DF4F88819981AA81C959D0404D
:1002E8008E0D9F1DA11DF7FCAA95C756DF4F888369
:1002F8009983AA83C959D04008C00196A11D253207
:1003080009F3FFEFEF1AFF0AD7CFC756DF4F8881EF
:100318009981AA81C959D040FC012491A7FD208167
:10032800253209F056C39C014A2F2F5F3F4F4F4F8C
:10033800C256DF4F288339834A83CE59D040C756E7
:10034800DF4F288339834A83C959D040C756DF4FC6
:1003580088819981AA81C959D040FC012491A7FDBF
:1003680020812B3241F4CF57DF4F28813981C15882
:10037800D04024600BC02C32CCF02D3259F5CF5729
:10038800DF4F28813981C158D0402160CF57DF4FD6
:1003980039832883C158D0400196A11DC756DF4F25
:1003A80088839983AA83C959D040D0CF203241F499
:1003B800CF57DF4F28813981C158D0402860E6CF18
:1003C800233291F4CF57DF4F28813981C158D0406B
:1003D8002061DCCF203341F4CF57DF4F28813981AA
:1003E800C158D0402260D2CF2A3299F50196A11D7A
:1003F800C756DF4F88839983AA83C959D040D5014E
:10040800ED91FC911197CF0102968D939C93808179
:100418009181CB57DF4F99838883C558D04097FF88
:100428003EC0CF57DF4F28813981C158D040B1E055
:100438002B27CF57DF4F39832883C158D040919558
:1004480081959109CB57DF4F99838883C558D04050
:1004580026C0BC018A2F0E942A15CB57DF4F9983EB
:100468008883C558D040C756DF4F288139814A81D3
:10047800C959D040F901849147FD8081082E000CAC
:10048800990BC0970A9758F42F5F3F4F4F4FC756A5
:10049800DF4F288339834A83C959D040E4CFCF57E7
:1004A800DF4F88819981C158D04080FF07C08D7F78
:1004B800CF57DF4F99838883C158D040C756DF4F45
:1004C80088819981AA81C959D040FC012491A7FD4E
:1004D80020812E3209F058C0CD57DF4F198218827B
:1004E800C358D0409C014A2F2F5F3F4F4F4FC756EC
:1004F800DF4F288339834A83C959D040F901549181
:1005080047FD50815A32D1F40296A11DC756DF4FDC
:1005180088839983AA83C959D040D501ED91FC916C
:100528001197CF0102968D939C9380819181CD572D
:10053800DF4F99838883C358D04026C0842FB901E0
:100548000E942A15CD57DF4F99838883C358D0401E
:10055800C756DF4F288139814A81C959D040F901EE
:10056800849147FD8081082E000C990BC0970A974B
:1005780058F42F5F3F4F4F4FC756DF4F28833983BB
:100588004A83C959D040E4CFCE0187569F4F0E9475
:100598009214182FC756DF4F2881C959D040C65624
:1005A800DF4F8881CA59D040C556DF4F9881CB5953
:1005B800D040E22FF82F849197FD8081082E000CFF
:1005C800990B0E94E1198936910509F45AC0B4F4CF
:1005D8008336910509F466C144F48532910509F41E
:1005E800A1C18136910529F1B3C18436910509F479
:1005F80048C0883691050CF42DC1AAC180379105F1
:1006080009F4CBC04CF48E36910509F419C18F3624
:10061800910509F47CC09CC18537910509F454C043
:100628008837910509F496C08337910509F090C180
:1006380058C1612F70E0A501C6010E94B517892B2A
:1006480009F4B7C1C756DF4F88819981AA81C95972
:10065800D0409C014A2F2F5F3F4F4F4FC756DF4F67
:10066800288339834A83C959D040FC012491A7FDC6
:100678002081A601BE016F577F4FC4010E942F1A27
:1006880095C1612F70E0950141E050E0C6010E94DC
:10069800560F892B09F48DC1C756DF4F8881998180
:1006A800AA81C959D0400196A11DC756DF4F88833A
:1006B8009983AA83C959D040A601BE016F577F4FBD
:1006C800C4010E94970E72C1612F70E0950140E04D
:1006D80050E0C6010E94560F892B09F46AC1C7561B
:1006E800DF4F88819981AA81C959D0400196A11DFF
:1006F800C756DF4F88839983AA83C959D040A6017A
:10070800BE016F577F4FC4010E9447134FC1612F2D
:1007180070E0950140E050E0C6010E94560F892B19
:1007280009F447C1C756DF4F88819981AA81C95901
:10073800D0400196A11DC756DF4F88839983AA83AD
:10074800C959D040A601BE016F577F4FC4010E940E
:1007580011122CC1612F70E0950140E050E0C601F4
:100768000E94560F892B09F424C1C756DF4F888190
:100778009981AA81C959D0409C014A2F2F5F3F4FC8
:100788004F4FC756DF4F288339834A83C959D04012
:10079800FC012491A7FD20814BC0950140E050E069
:1007A80060EF70E0C6010E94560F892B09F401C161
:1007B800C756DF4F88819981AA81C959D0400196CF
:1007C800A11DC756DF4F88839983AA83C959D04092
:1007D80086E02DED31E040E0F901DE01AD56BF4F76
:1007E800742F0E946119D6012C9111963C91119792
:1007F80012964C91129713965C91139714966C91DC
:10080800149715967C91159716968C9116971796AE
:100818009C91A0E00E94921951F400E010E0CF559D
:10082800DF4F288139814A81C15AD040B9C028E7B1
:10083800A601BE016F577F4FC4010E94440AB6C08B
:10084800612F70E09501A1014E0D5F1DC6010E9448
:100858003B11AFC0612F70E0A501C6010E94B5171A
:10086800892B09F4A6C0C756DF4F88819981AA81D0
:10087800C959D0409C014A2F2F5F3F4F4F4FC75651
:10088800DF4F288339834A83C959D040FC0124911A
:10089800A7FD2081A601BE016F577F4FC4010E94AA
:1008A8002F1A84C0103809F084C0C756DF4F8881DA
:1008B8009981AA81C959D0400196A11DC756DF4F19
:1008C80088839983AA83C959D040D501ED91FC91B9
:1008D8001197CF0102968D939C938081F6018083B6
:1008E8005BC0103809F065C0C756DF4F8881998111
:1008F800AA81C959D0400196A11DC756DF4F8883E8
:100908009983AA83C959D040D501ED91FC911197DB
:10091800CF0103968D939C9320813181428100E021
:1009280010E03EC0103809F044C0C756DF4F888138
:100938009981AA81C959D0400196A11DC756DF4F98
:1009480088839983AA83C959D040F601708224C04C
:10095800D6017C92C256DF4F288139814A81CE590F
:10096800D040C756DF4F288339834A83C959D040BE
:10097800CF57DF4F19821882C158D040CB57DF4F6D
:1009880019821882C558D0408FEF9FEFCD57DF4F9F
:1009980099838883C358D04001E010E0462D920126
:1009A800BE016F577F4FC4010E94E2128E0D9F1D3A
:1009B80011C0C756DF4F88819981AA81C959D04093
:1009C8000196A11DC756DF4F88839983AA83C95909
:1009D800D040C7017101E80EF91EE214F3044CF48B
:1009E8008FE490E090936100809360008FEF9FEF19
:1009F80003C0170121CCC101CD55DF4FE2E10C94B2
:020A08002D18A7
:100A0A002F923F924F925F926F927F928F929F9214
:100A1A00AF92BF92CF92DF92EF92FF920F931F9302
:100A2A00CF93DF93CDB7DEB7E0970FB6F894DEBF6A
:100A3A000FBECDBF98AB8FA70E94231A60E080E05B
:100A4A000E94A6186EEA70E080E00E944B17712C93
:100A5A00CE0101969E8B8D8BA0E889A79AA7ABA79A
:100A6A00812C912C7F8E272C372C472C572C672CC6
:100A7A007FA278A6172D072DF12E0E9424170E9417
:100A8A00B515FC010A9708F07CC0212F322D432DA1
:100A9A00542D652D762D802F9F2D01E00E94481838
:100AAA002F8B232E342E452E562E672EB82FA92F84
:100ABA0002E00E944818A22EB32EC42ED52EE62E8E
:100ACA00F72E082F192F2F89322D432D542D652DDE
:100ADA00762D8B2F9A2F0E94B419A22EB32EC42ED4
:100AEA00D52EE62EF72E082F192F9F2F990F990B27
:100AFA002E2F3F2F492F592F692F792F892F0E9487
:100B0A00B419122F232E342E452E562E672E082F57
:100B1A00F92E9FEF891A990A0E94231A672D872DA9
:100B2A000E94A6186EEA70E080E00E944B17672DBB
:100B3A0081E00E94A618FF920F936F925F924F92E4
:100B4A003F922F921F939F928F9289EB90E0A0E0A1
:100B5A00AF939F938F9381E090E08C0F9D1F9F939B
:100B6A008F930E94E21869A57AA58BA50E944B175C
:100B7A0084EF91E00E94FD160FB6F894DEBF0FBE17
:100B8A00CDBFF8E08F1691040CF477CF1F8F0FA317
:100B9A00F8A66894AA24A4F80F2EF7E2BF2EF02D27
:100BAA00C72CD72CE72CF72C072D172D2F8D322D7C
:100BBA00432D542D652D762D8FA198A50E941D16C3
:100BCA00822E932E22EB821627E09206DCF40E94F4
:100BDA00231A672D872D0E94A61861EC70E080E029
:100BEA000E944B1788EE93E00E94FD160E94231A7A
:100BFA00672D872D0E94A6186EEA70E080E00E9499
:100C0A004B172ECF6894AA24A6F80F2EF2E4BF2E13
:100C1A00F02D0F2EFFE0CF2EF02DD72CE72CF72C3E
:100C2A00072D172D2F8D322D432D542D652D762D01
:100C3A008FA198A50E941F162F8B388F498F5A8F24
:100C4A006B8F7C8F8D8F9E8F8F89988D0D97D8F0A3
:100C5A000E94231A672D872D0E94A6186EEC70E059
:100C6A0080E00E944B1788EE93E00E94FD160E94D6
:100C7A00231A672D872D0E94A6186EEA70E080E07D
:100C8A000E944B17EDCE6894AA24A4F80F2EF7E21F
:100C9A00BF2EF02DC72CD72CE72CF72C072D172D9C
:100CAA002F8D322D432D542D652D762D8FA198A58C
:100CBA000E941F160F2EF4E6AF2EF02DB72C0E94BD
:100CCA001D16022F132F00321105D8F00E94231A85
:100CDA00672D872D0E94A6186CED70E080E00E94B7
:100CEA004B1788EE93E00E94FD160E94231A672D87
:100CFA00872D0E94A6186EEA70E080E00E944B17CA
:100D0A00AFCE9CE6891A97E0990AEFA5F8A99386CF
:100D1A0082868F89988D01979187808717830683AA
:100D2A000E94231A60E080E00E94A61868EE70E034
:100D3A0080E00E944B17712CCE0101969E8B8D8B01
:100D4A00A0E88CA79DA7AEA7212C312C672C872C55
:100D5A00972C572C472C7FA278A679A6172D072DFA
:100D6A00F12E0E9424170E94B515FC010A9708F07B
:100D7A007CC0262D382D492D552D642D712F802F9D
:100D8A009F2D01E00E9448182F8B432E542E652E6A
:100D9A00862E972EB82FA92F02E00E944818A22E5D
:100DAA00B32EC42ED52EE62EF72E082F192F2F89F3
:100DBA00342D452D562D682D792D8B2F9A2F0E9473
:100DCA00B419A22EB32EC42ED52EE62EF72E082F36
:100DDA00192F9F2F990F990B2E2F3F2F492F592FDC
:100DEA00692F792F892F0E94B419622E832E942E8F
:100DFA00552E462E172F082FF92E9FEF291A390A3A
:100E0A000E94231A672D872D0E94A61868EE70E0AB
:100E1A0080E00E944B17672D81E00E94A618FF927E
:100E2A000F931F934F925F929F928F926F923F926E
:100E3A002F9289EB90E0A0E0AF939F938F9381E08C
:100E4A0090E08C0F9D1F9F938F930E94E2186CA5D0
:100E5A007DA58EA50E944B1784EF91E00E94FD1696
:100E6A000FB6F894DEBF0FBECDBFF6E02F163104E1
:100E7A000CF477CF1FA308A7F9A66894AA24A4F8AC
:100E8A000F2EF7E2BF2EF02DC72CD72CE72CF72C0C
:100E9A00072D172D262D382D492D552D642D7FA16F
:100EAA0088A599A50E941F162F8B388F498F5A8FB4
:100EBA006B8F7C8F8D8F9E8F8F89988D4897D8F0F6
:100ECA000E94231A672D872D0E94A61861EF70E0F1
:100EDA0080E00E944B1788EE93E00E94FD160E9464
:100EEA00231A672D872D0E94A61868EE70E080E00D
:100EFA000E944B1729CF0F2EF4E6AF2EF02DB72CF8
:100F0A00C72CD72CE72CF72C072D172D262D382D7B
:100F1A00492D552D642D7FA188A599A50E941F16DC
:100F2A000E941D162F8F38A349A35AA36BA37CA333
:100F3A008DA39EA3EF8DF8A1FC97D8F00E94231AE7
:100F4A00672D872D0E94A6186EEF70E080E00E9440
:100F5A004B1788EE93E00E94FD160E94231A672D14
:100F6A00872D0E94A61868EE70E080E00E944B1759
:100F7A00EBCE0F2EF4E6AF2EF02DB72CC72CD72CC4
:100F8A00E72CF72C072D172D262D382D492D552DF9
:100F9A00642D7FA188A599A50E941D16022F132FE3
:100FAA000C331105D8F00E94231A672D872D0E9451
:100FBA00A6186DE071E080E00E944B1788EE93E07E
:100FCA000E94FD160E94231A672D872D0E94A618DB
:100FDA0068EE70E080E00E944B17B6CE8F89988D3C
:100FEA00EFA5F8A9958384838F8D98A19383828333
:100FFA0011830083E0960FB6F894DEBF0FBECDBF13
:10100A00DF91CF911F910F91FF90EF90DF90CF90DA
:10101A00BF90AF909F908F907F906F905F904F900E
:06102A003F902F90089595
:10103000A6E1B0E0EEE1F8E00C9411187901D42EAD
:10104000C52EB62FA72FF82FB92E40585D4B6E40F6
:101050007F4F8F4F9F4F21153B474D415348624E65
:1010600071408105910511F008F008C2188B0F87B7
:101070009B2D8F2F7A2F6B2F5C2D4D2D9701205894
:101080003D454C4B5843610971098109910919018A
:101090004D8359876D877983898B9A8BF0E8AF2EC2
:1010A000A1E5BA2ECC24C394D12CE12CF12C00E084
:1010B00010E00E941F1629013A014B018E8B9B8B79
:1010C00091014D8159856D85798189899A890E941F
:1010D0001D162D833E834F8358878D819E81AF815E
:1010E000B885B7FF15C080589E4AAE4FBF4F8D835D
:1010F0009E83AF83B8879201A301B4018E899B8937
:10110000AFEF0E94861929013A014B018E8B9B8B10
:101110009201A301B4018E899B89A3E00E948619E4
:10112000E7E0AE2EB12CC12CD12CE12CF12C00E04B
:1011300010E00E941D162D873E87AD85BE85B7FF46
:1011400003C01796BE87AD8751EBA52E6AE3B62E76
:1011500072E0C72ED12CE12CF12C00E010E09201BE
:10116000A301B4018E899B890E941F1629873A87A3
:101170004B875C879201A301B4018E899B890E94F1
:101180001D16822E932EA42EB52EB7FE12C0B1EBE3
:101190008B0EBAE39B1EB2E0AB1EB11C89859A850B
:1011A000AB85BC850197A109B10989879A87AB876F
:1011B000BC87C501B4012CEA3EE840E050E00E9443
:1011C000791869017A01243031054105510529F466
:1011D00043E0C42ED12CE12CF12CA4E5B1E7A7010A
:1011E00096010E94F4192B013C01480C591C6A1C01
:1011F0007B1CC301B20125EB35E040E050E00E94CA
:10120000791849015A01293131054105510529F45F
:1012100038E1832E912CA12CB12CABE4BAEFA501BF
:1012200094010E94F419460E571E681E791EC301D0
:10123000B2012DE631E040E050E00E9479182983A8
:101240003A834B835C83243031054105510541F4D9
:1012500083E090E0A0E0B0E089839A83AB83BC8315
:10126000A3E9BEEF29813A814B815C810E94F41988
:10127000460E571E681E791E232B242B252B81F426
:1012800081149104A104B10471F431E020E0C1148F
:10129000D104E104F10409F030E0832F922F05C05E
:1012A00080E090E002C081E090E01201ABE32A0E02
:1012B000311C280E391E9C0124593E4F221533053E
:1012C00024F483599E4F281A390A92E0880C991CFD
:1012D000AA1CBB1C9A95D1F789819A81AB81BC81EC
:1012E000880E991EAA1EBB1EA4E6B0E0A7019601B7
:1012F0000E94A919860E971EA81EB91ED501C40109
:10130000BB0F880B982FDC0189839A83AB83BC8346
:1013100069857A858B859C8520E931E040E050E045
:101320000E943519F22FE32F6A017B018C01940191
:10133000A5016981762F862F962FAF2EBE2E0E9493
:10134000B41949015A016B017C012AEC31E040E0FB
:101350001A821982F901849147FD8081082E000CC0
:10136000990BAA0BBB0B2F5F3F4F4F4F48165906E7
:101370006A067B0654F0481A590A6A0A7B0AA98150
:10138000BA811196BA83A983E5CFE981FA81EA305F
:10139000F10574F03C97FA83E9839401A501B60145
:1013A000C701A1E00E94861949015A016B017C0125
:1013B0009401A501B601C7012C593F474F4F5F4F1C
:1013C0006F4F7F4F8F4F9F4F2F3F3F4F410551052D
:1013D000610571058105910511F008F04FC024E603
:1013E000820E911CAF85B8891B969C928E921A979B
:1013F000E981FA8132961996FC93EE931897FFEFE4
:101400004F1A5F0A17965C924E9216978D859E85AD
:101410001D969C938E931C971F963C922E921E971E
:101420006D817E818F81988520E13EE040E050E033
:101430000E947918AF85B88915963C932E9314971E
:101440008CE3C82ED12CE12CF12C6D817E818F8113
:101450009885A70196010E9479184B015C01CA0189
:10146000B901A70196010E947918EF85F889738365
:1014700062839182808280E090E002C08FEF9FEFD4
:081480006696E2E10C942D18C0
:10148800A4E1B0E0EAE4FAE00C94111898878F839D
:101498007A8369835C8B4B8B122FDB011296ED915B
:1014A800FC91139714962D913C9115973E832D83AB
:1014B800ED90FC90119716962D903C901797F7FD9C
:1014C80003C0E894E1F802C0E1E0F0E0C7018071F0
:1014D80099279A878987E4FE1FC0AB89BC892C911C
:1014E80011963C91119712964C91129713965C9114
:1014F800139714966C91149715967C9115971696D8
:101508008C91169717969C91A0E00E94921921F051
:101518008D819E81029702C08D819E8197012870DE
:1015280033273C872B87E3FC0197AB89BC894C9018
:1015380011965C90119712966C90129713967C9066
:10154800139714968C90149715969C901597169649
:10155800AC9016971796BC90A981BA811896CD9031
:10156800DC901997B1E0CB1AD108D101AC0DBD1DA3
:101578001C929C838B839F01281B390B3E872D87E8
:10158800C70182709927988B8F87812F012E000CB5
:10159800990BDC01A154B109BA8BA98B32E0C316AF
:1015A800D10434F489859A85892B09F04CC073C01D
:1015B8009201A301B401C501A0E00E94921981F132
:1015C800B1E0CB1AD108C2018F7099278A309105F2
:1015D80014F4C09602C0895A9F4FE989FA897A970C
:1015E80048F49C012062215631092A31310510F452
:1015F8000E94C619F101EC0DFD1D80832B813C81F1
:10160800215031093C832B839201A301B401C50108
:1016180004E00E94F51729013A014B015C01BECF95
:101628008D859E85AB81BC818A0F9B1F1816190674
:101638003CF21A161B060CF0B5CFEF85F889EF2B94
:1016480009F0BECFAFCFAB89BC892C9111963C91E4
:10165800119712964C91129713965C9113971496C2
:101668006C91149715967C91159716968C911697F0
:1016780017969C91A0E00E94921969F0F101EC0D77
:10168800FD1D31971083B2E0CB1AD108F101EC0DA2
:10169800FD1D80E38083EB85FC85EF2B41F0F1E0B5
:1016A800CF1AD108F101EC0DFD1D80E28083A981DC
:1016B800BA8118962D913C911997215031092C190E
:1016C8003D09C20CD31CA60160E80D811E818F81E3
:1016D80098850E94B4109C01EF81F88580819181E2
:1016E80090FF09C0A981BA8112968D919C91139798
:1016F800821793070CF4C9016496E2E10C942D1843
:10170800ACE0B0E0EAE8FBE00C94111849015A019A
:101718006B017C011C830B832A3831054105510577
:10172800610571058105910511F00CF042C0F901C0
:10173800E454F109F595E795F595E795C9018370A6
:101748009927892B51F431970115110569F081E02A
:1017580090E0D8018D939C9307C08B819C81009762
:1017680019F0DC011D921C92D901A654B10920E898
:1017780033E341EE51E00E94F1196B017C01DF0176
:1017880020E831E541E050E00E94F119DC01CB018D
:101798008C0D9D1DAE1DBF1D9C01AD016C017D0111
:1017A800FF0CCC08DC2C7601AC2DFC2DEC2D9C2DEF
:1017B800CBC0EB81FC81EF2B31F41A821982CE0168
:1017C80001969C838B83C4018456910960E971E07A
:1017D8000E94BA187E836D839401A501B601C701E2
:1017E800ACE90E94861919012A013B018F83988769
:1017F80070E9A72EBB24B394C12CD12CE12CF12C79
:1018080000E010E09101A201B3010E941D16C90178
:10181800009759F481E090E0AB81BC818D939C9353
:1018280020E030E040E050E033C0283C31056CF067
:101838002C3231402CF08C52914043E050E00CC0E7
:10184800885C910942E050E007C0243631056CF00D
:101858008456910941E050E0009749F4EB81FC81FE
:101868001182108220E030E013C040E050E09C017B
:1018780036952795369527958370992761E070E00E
:10188800892B11F060E070E0AB81BC816D937C9393
:1018980081E6ED81FE818E9FB0018F9F700D11242E
:1018A800E8E1E49FC001E59F900D1124860F971F82
:1018B800AB81BC814D915C91841B950B820F931F6A
:1018C800E92FEE0FEE0B20E8A22E31E5B32ECC2443
:1018D800C394D12CE12CF12C00E010E09C014E2F98
:1018E8005E2F6E2F7E2F8E2F9E2F0E944214922ED7
:1018F800832E4B835D8369877A878B879C8743E335
:10190800B42E51EEC52EDD24D3949101A201B3016A
:101918008F8198850E94421459016A017B018C01CC
:10192800292D382D4B815D8169857A858B859C852C
:101938000E94B4193B564149574C6F4F7F4F8F4F08
:101948009F4FA62FF72FE82F6A2F7F2F8E2F2C96C9
:06195800E2E10C942D18E1
:10195E00CF93DF93CDB7DEB7E7970FB6F894DEBF20
:10196E000FBECDBF0E94D5160E94231A87E390E0CA
:10197E009A8389838BE390E09C838B8387E190E04D
:10198E009E838D838FE190E098878F838BE090E02C
:10199E009A87898787E790E09C878B878FEF9FEFE9
:1019AE009A8B898BF12CBB24B3940F2EFCE1CF2E96
:1019BE00F1E0DF2EF0E0EF2EF02D8E01065E1F4FD0
:1019CE00380120E8822E0F2EF0E32F2EF1E03F2E6D
:1019DE00F0E04F2EF02D0E9424170E94B515803195
:1019EE00910529F4CE0101960E94050505C00A97BE
:1019FE0019F48B2D8F19F82E0E94231A60E080E0C7
:101A0E000E94A6188B859C858459984F9F938F931F
:101A1E0088858F938F818F9389859A8501969F9361
:101A2E008F93EF92DF92CF921F930F930E94E21843
:101A3E00882DB3010E944B1760E08B2D0E94A618D3
:101A4E000FB6F894DEBF0FBECDBFF11019C08A815C
:101A5E008F9389818F938C818F938B818F938E81BE
:101A6E008F938D818F934F923F922F921F930F934F
:101A7E000E94E2180FB6F894DEBF0FBECDBF5FC056
:101A8E008D819E819C01215031092C303105D0F47D
:101A9E002A812F9329812F932C812F932B812F9382
:101AAE009F938F9384E491E0A0E0AF939F938F93E5
:101ABE001F930F930E94E2180FB6F894DEBF0FBE6D
:101ACE00CDBF3DC09C012D5031092B303105F0F4B6
:101ADE002A812F9329812F932C812F932B812F9342
:101AEE006CE070E00E94BA189F938F938AE591E0A4
:101AFE00A0E0AF939F938F931F930F930E94E218D2
:101B0E000FB6F894DEBF0FBECDBF19C0892BB9F446
:101B1E008A818F9389818F938C818F938B818F9301
:101B2E0080E791E0A0E0AF939F938F931F930F9365
:101B3E000E94E2180FB6F894DEBF0FBECDBF882DFF
:101B4E00B3010E944B1789819A8101969A838983EA
:101B5E00CE0101960E94721588EE93E00E94FD164A
:021B6E003ACF6C
:101B7000A5E0B0E0EEEBFDE00C9411183B01882EDF
:101B8000A82FCB010A96A11DFC015A2F0E94F9191A
:101B90005B019B019B2C990C9908F92CB92DA92D5F
:101BA000892D992DE82C630148E0C40ED11CE11C5D
:101BB000F6015E2D0E94F9192B016C30710510F1B0
:101BC000CB016CE070E00E94BA182C0197FF05C0B1
:101BD000615071098CE0480E511C972F990F990B99
:101BE0009B01492F592F692F792F892FC92CD92C67
:101BF000E92CF92C092D192D0E94B419942EF52EDB
:101C0000B62FA72F8E010F5F1F4F492D5F2D6B2F12
:101C10007A2F0E94840B59016A017B018C01698132
:101C20007A81C2010E94D5171B012C01550C220894
:101C3000322C21019B01AC01622D722D822D922D3F
:101C40000E94B41919012A01962E7B838C839D83EF
:101C5000A82DC3010696A11DFC015A2F0E94F91957
:101C600061507109972F990F990B30E8A32E41E528
:101C7000B42ECC24C394D12CE12CF12C00E010E044
:101C80009B01492F592F692F792F892F0E944214C8
:101C900051016201E92CFB800C811D810E94B41965
:101CA00059016A017B018C01A82DC3010496A11D75
:101CB000FC015A2F0E94F919072E000C880B990B72
:101CC00020E13EE040E050E00E9435190E94B41946
:101CD00059016A017B018C01A82DC3010296A11D47
:101CE000FC015A2F0E94F919072E000C880B990B42
:101CF0002CE330E040E050E00E9435190E94B41916
:101D000059016A017B018C01F301582D0E94F919D8
:101D10009B01932F990F990B492F592F692F792FD9
:0E1D2000892F0E94B4192596E2E10C942D182B
:101D2E00ADE0B0E0EDE9FEE00C9411189A878987DA
:101D3E007C836B83FA01DB011296CD90DC901397B6
:101D4E0014968D919C9115979E838D83ED90FC90AA
:101D5E001197FA82E98216960D90BC91A02DB88744
:101D6E00AF8320803180428053806480758086806E
:101D7E0097808101B42DF52DE62D7B868C869D8670
:101D8E009101A201B301C401A0E00E9492194CF48A
:101D9E000E9416198901B42FF52FE62F7B878C87A9
:101DAE009D87D7FC04C0E894E1F8FA82E98291019C
:101DBE00A201B301C401A0E0ED80FE800E94921941
:101DCE001CF0898182FF04C081E0E81AF10805C089
:101DDE0083FF03C091E0E91AF108CE0101965C0180
:101DEE008AE0C82ED12C2B2F3F2F4E2F5B856C8572
:101DFE007D858B819C810E940F10FC019101A201B7
:101E0E00B301C401A0E00E9492191CF0898182FFE7
:101E1E0012C031970F8118850E0F1F1F9101A2015D
:101E2E00B301C401A0E00E94921914F08BE201C02C
:101E3E008DE2D80108C083FF07C03197AF81B88506
:101E4E00AE0FBF1F80E28C93E980FA80AB81BC811C
:101E5E0018962D913C911997215031092E1B3F0B4D
:101E6E008F819885E80FF91FAF0160E80D811E8103
:101E7E0089859A850E94B4109C01A985BA858D9199
:101E8E009C9190FF07C0EB81FC8182819381821728
:0E1E9E0093070CF4C9012D96E2E10C942D1867
:101EAC000F931F93CF93DF93FC01D9016838710511
:101EBC0031F194F461387105B1F12CF4603871058D
:101ECC0009F478C09FC06238710509F459C06438B0
:101EDC00710509F46FC096C0603A710509F448C0E9
:101EEC002CF46039710509F44BC08CC0603C710551
:101EFC0009F476C0603F710509F472C083C0CD91BE
:101F0C00DC911197CE0102968D939C93452B39F061
:101F1C009881892F880F880B908381835BC088817F
:101F2C008083118268C0CD91DC911197CE0104960B
:101F3C008D939C93452B99F088819981AA81BB81C3
:101F4C00AC01BD01770F440B542FBA0180839183F0
:101F5C00A283B383448345834683478328C0088187
:101F6C0019812A813B81008311832283338345C0ED
:101F7C00CD91DC911197CE0102968D939C9323C049
:101F8C00CD91DC911197CE0108968D939C9378811D
:101F9C0069815A814B813C812D819E818F81708317
:101FAC00618352834383348325839683878381E0C3
:101FBC0090E02AC0CD91DC911197CE0102968D93C1
:101FCC009C93452BA1F099812881892F880F880B30
:101FDC002083918382838383848385838683E6CF66
:101FEC00CD91DC911197CE0102968D939C93088133
:101FFC001981008311831282138214821582168236
:10200C001782D5CF80E090E0DF91CF911F910F9197
:02201C00089525
:10201E00A2E1B0E0E5E1F0E10C941118FC010A8BAD
:10202E001B832C83732E642E552E462E7D83CC86D9
:10203E00D886BF82AE82868197819B878A87D5019B
:10204E004D915C91228133818085918501971C0190
:10205E0037FF02C021E030E0EA85FB85E80FF91F6B
:10206E0010824701E1E0F0E0FA83E983C9018E199D
:10207E009F099E878D87DA01A270BB27B88BAF8729
:10208E00B885BB0FBB0BB98B1214130474F0A98166
:10209E00BA81AB2B09F05CC0AE81BF818D919C9152
:1020AE0011978F7E8D939C9353C02A893B814C81CF
:1020BE00572D662D752D842D9D81A0E00E949219BD
:1020CE00B1F1E1E02E1A3108FC85F987AF2EB88404
:1020DE00C988DC2CEC2CFC2C0C2D1C2D2A893B8168
:1020EE004C81572D662D752D842D9D810E9453197F
:1020FE00C90129839A83EA85FB85E20DF31D805D74
:10210E00808381E0881A91082A893B814C81572D62
:10211E00662D752D842D9D810E9455192A8B3B832A
:10212E004C83752E662E572E482E9D83ADCF8D85F2
:10213E009E85880D991D181619061CF2181419047F
:10214E000CF0A5CFEF85F889EF2B09F0BACF9FCF12
:0A215E00C1016296E2E10C942D1815
:102168002F923F924F926F927F928F92AF92BF922F
:10217800CF92DF92EF92FF920F931F93CF93DF934B
:10218800CDB7DEB766970FB6F894DEBF0FBECDBFEA
:102198005C013A01862E6901C701817099279C8BE1
:1021A8008B8BE0FC1DC020173107D4F47801EC18A4
:1021B800FD08FE8AED8AA70191E1E916F10410F005
:1021C80040E150E060E270E0CE0101969A8B898B85
:1021D8000E94BD1989899A891C0120E8422E0BC0EA
:1021E8009601682DA301C5010E94E915C016D10604
:1021F800ECF2C60125C090E1E916F10458F020E19F
:1022080030E0642DA101C5010E94E91580E1E81ABA
:10221800F108F1CF2D893E892F70332789899A8952
:10222800AC0160E8C5010E94E9158B899C89892B5E
:1022380031F49601682DA301C5010E94E915C80172
:1022480066960FB6F894DEBF0FBECDBFDF91CF9173
:102258001F910F91FF90EF90DF90CF90BF90AF90BC
:0E2268008F907F906F904F903F902F90089531
:10227600CF93DF93DC01F90164387105D9F164F479
:102286006138710521F16238710509F440C0603882
:10229600710509F054C02EC060397105C1F184F48E
:1022A6006838710509F04BC0C081D181CE01029614
:1022B60091838083E881F981ED93FC9340833CC050
:1022C600603A7105B9F0603C7105A1F038C0C08173
:1022D600D181CE01029691838083E881F981ED93C5
:1022E600FC93052E000C660B770B408351836283AB
:1022F600738322C0C081D181CE01029691838083EF
:10230600E881F981ED93FC935183408315C0C08128
:10231600D181CE01029691838083E881F981ED9384
:10232600FC9351834083852F880F880B8283838398
:10233600848385838683878381E090E002C080E082
:0823460090E0DF91CF910895B2
:10234E000FC00E94081A38F00E940F1A20F0952331
:10235E0011F00C941D1A0C942C1A11240C94171AAB
:10236E000E94711770F3959FC1F3950F50E0551FA2
:10237E00629FF001729FBB27F00DB11D639FAA27CC
:10238E00F00DB11DAA1F649F6627B00DA11D661F1B
:10239E00829F2227B00DA11D621F739FB00DA11D3C
:1023AE00621F839FA00D611D221F749F3327A00DF6
:1023BE00611D231F849F600D211D822F762F6A2F92
:1023CE0011249F5750409AF0F1F088234AF0EE0FF7
:1023DE00FF1FBB1F661F771F881F91505040A9F724
:1023EE009E3F510580F00C941D1A0C94171A5F3FF6
:1023FE00E4F3983ED4F3869577956795B795F79560
:10240E00E7959F5FC1F7FE2B880F911D96958795D7
:04241E0097F908958D
:10242200A2E0B0E0E7E1F2E10C9411181C014B01CB
:10243200FA01DB0112962D913C91139714964D905F
:102442005C9015978D919C9111979A83898316962A
:102452006D907C90179737FD03C08D7F9A83898397
:102462000081118122813381448155816681778186
:10247200FE0131965F0188E0C82ED12C7201C401A1
:102482000E940F10298124FF06C00197F301E80F73
:10249200F91F20E32083298123FF06C00197F3015E
:1024A200E80FF91F20E22083E980FA80D401189610
:1024B2002D913C91199721503109281B390B860D1A
:1024C200971DAC0160E88201C1010E94B4109C0119
:1024D200F1018081918190FF08C0D40112968D9103
:1024E2009C911397821793070CF4C9012296E2E19B
:0424F2000C942D1801
:1024F60011C00E94081A38F00E940F1A20F039F411
:102506009F3F19F426F40C942C1A0EF4E095E7FB81
:102516000C941D1AE92F0E94711758F3BA17620717
:1025260073078407950720F079F4A6F50C94161A1C
:102536000EF4E0950B2EBA2FA02D0B01B9019001D8
:102546000C01CA01A0011124FF27591B99F0593F1C
:1025560050F4503E68F11A16F040A22F232F342F64
:102566004427585FF3CF469537952795A795F040B2
:102576005395C9F77EF41F16BA0B620B730B840BC7
:10258600BAF09150A1F0FF0FBB1F661F771F881F7F
:10259600C2F70EC0BA0F621F731F841F48F48795D7
:1025A60077956795B795F7959E3F08F0B0CF9395C9
:0E25B600880F08F09927EE0F979587950895E6
:1025C4002F923F924F926F927F928F92AF92BF92CF
:1025D400CF92DF92EF92FF920F931F93CF93DF93EB
:1025E400CDB7DEB727970FB6F894DEBF0FBECDBFC9
:1025F4006C017B013901842E980186ED282E81E03F
:10260400382E80E0482E87E0F101AE014F5F5F4F26
:10261400DA01742D0E946119F70102811381A480EB
:10262400B580E080F18061147104810419F43A01E9
:10263400F0E88F2E2115310529F4882DB3010E946D
:1026440090189C0117FD04C00217130708F49801A1
:102654008501682DA301C6010E94B41027960FB608
:10266400F894DEBF0FBECDBFDF91CF911F910F91C4
:10267400FF90EF90DF90CF90BF90AF908F907F90BE
:0A2684006F904F903F902F90089543
:10268E00A2E0B0E0EDE4F3E10C9411183C014B0133
:10269E00FA01DB0112962D913C91139714964D90F1
:1026AE005C9015978D919C9111979A8389831696BC
:1026BE002D903C90179737FD03C08D7F9A838983A9
:1026CE000081118122813381448155816681778118
:1026DE00FE0131965F018AE0C82ED12C7201C40131
:1026EE000E940F10E980FA80D40118962D913C912A
:1026FE00199721503109281B390B820D931DAC01FE
:10270E0060E88201C3010E94B4109C01F301808134
:10271E00918190FF08C0D40112968D919C911397D0
:10272E00821793070CF4C9012296E2E10C942D183E
:10273E006F927F928F92EF92FF920F931F93CF9390
:10274E00DF93CDB7DEB761970FB6F894DEBF0FBE3D
:10275E00CDBFFE01319651E1DF011D925A95E9F789
:10276E00A2E0B1E0BA83A9839C838B8377FF09C073
:10277E008FE490E090936100809360008FEF9FEF65
:10278E0019C03901842E7C01615071097F836E83DB
:10279E009801682DA301CF010E94611848855985C3
:1027AE002E813F814217530708F49A01F701E20F79
:1027BE00F31F108261960FB6F894DEBF0FBECDBF29
:1027CE00DF91CF911F910F91FF90EF908F907F909F
:0427DE006F9008955B
:1027E20088249924F401E401B0E49F93AA279A155E
:1027F2008B049C04ED05FE05CF05D007A10798F4D4
:10280200AD2FDC2FCF2FFE2FE92D982C892E982F5C
:10281200872F762F652F542F432F322F2227B85020
:1028220031F7BF9127C01B2EBF91BB27220F331F49
:10283200441F551F661F771F881F991F881C991CEC
:10284200EE1FFF1FCC1FDD1FAA1FBB1F8A149B0494
:10285200EC05FD05CE05DF05A007B10748F08A1893
:102862009B08EC09FD09CE09DF09A00BB10B216021
:102872001A94E1F62EF49401AF01BE01CD01000CD1
:022882000895B7
:10288400DF93CF931F930F939A9DF02D219FF00D0B
:102894008B9DF00D8A9DE02DF10D039FF00D029F9D
:1028A400E00DF11D4E9DE00DF11D5E9DF00D4F9D5F
:1028B400F00D7F936F93BF92AF925F934F93D501C7
:1028C4000E9444198B01AC01D7010E944419EB0109
:1028D400E80FF91FD6010E94CF192F913F91D6011D
:1028E4000E944419C60FD71FE81FF91FAF91BF916B
:1028F4000E94CF192F913F910E944419C60FD71FF0
:10290400E81FF91FD6010E944419E60FF71F98012A
:10291400BE01CF0111240F911F91CF91DF91089532
:10292400CF92DF92EF92DC0190E0292F30E0220F6A
:10293400331F6901032E000CEE086E2DA6014C54C2
:102944005E4F6F4F6A01E62EFA018491E7FC8081A5
:1029540081110DC02F5F3F4F032E000C440B2C54EC
:102964003E4F4F4FF901849147FD808124C0CD90A3
:10297400DD90EC901297F6014491E7FC40818413BA
:1029840015C02F5F3F4F032E000C440B2C543E4FB9
:102994004F4FF901949147FD90815FEFC51AD50A15
:1029A400E50ACD92DD92EC92129701C09F5F9B30B5
:0E29B40008F4BBCF892FEF90DF90CF900895ED
:1029C2000F931F93CF93DF93DB012D913C911197CE
:1029D20030FF25C017964D915C91189715962D9151
:1029E2003C9116974217530778F41296ED91FC9199
:1029F2001397808312962D913C9113972F5F3F4F2F
:102A020013963C932E93129717962D913C911897FB
:102A12002F5F3F4F18963C932E93179715C01D9624
:102A2200ED91FC911E97309719F48FEF9FEF0CC038
:102A32008B01EC010995892BC1F7F80187819085FB
:102A4200019690878783CE01DF91CF911F910F91DD
:022A52000895E5
:102A5400CF939B01482FF901849147FD80818032F7
:102A6400C9F1682F082E000C770B69507109653085
:102A7400710580F18B3249F5A0E0B0E02F5F3F4F44
:102A84004F4F02C0A0E0B0E080E090E0CAE0F9015E
:102A9400649147FD6081062E000C770B6053710929
:102AA4006A30710560F4C89FF001C99FF00D1124CC
:102AB4002F5F3F4F4F4FCF01861B970BE8CFAB2BB8
:102AC40069F491958195910909C08D32D9F6A1E0F7
:102AD400B0E0D4CF2F5F3F4F4F4FBDCFCF9108957C
:102AE400A9E1B0E0E8E7F5E10C9413182C01BC016E
:102AF40080E80E94B80D39014A0159016A01E12CAC
:102B0400F12C00E010E00E94D819F9F41A8A198A0D
:102B14001B8A1C8A1D8A1E8A23EE31E040E02F8B1B
:102B2400388F498F8E010F5F1F4F9301482D0E94EC
:102B3400180897FD0AC089E1F801D20101900D92AD
:102B44008A95E1F7B301C4010AC08FE490E0909341
:102B54006100809360006FEF7FEF8FEF9FEF6996C6
:062B6400E0E10C942F18C3
:102B6A009C01255031092330310510F4019708954D
:102B7A009C01295031092330310510F40297089538
:102B8A008430910579F08830910579F0803191058A
:102B9A0079F08D30910579F08E30910579F00097B2
:102BAA0081F008958AE090E008958BE090E008951E
:102BBA008DE090E0089580E190E0089580E090E053
:082BCA0008958FEF9FEF0895BD
:102BD2006F927F928F92CF92DF92EF920F931F9319
:102BE200CF93DF938C016A01E62EE9013A01862E2A
:102BF200620E731E811C37FD8A94C614D704E80442
:102C020079F0F6018491E7FC8081B801082E000C6E
:102C1200990B0E94E1148FEFC81AD80AE80AEDCF87
:102C2200CE01DF91CF911F910F91EF90DF90CF9066
:082C32008F907F906F900895D0
:102C3A00689401C0E894F92FF12B12F00C945619FC
:102C4A00A0E0B0E0EBE2F6E10C941718092E059427
:102C5A0022F40E941619112392F4F0E80F26FFEFCE
:102C6A00E094F09400951095B094C094D094A194F7
:102C7A00BF0ACF0ADF0AEF0AFF0A0F0B1F0B0E94D7
:102C8A00F11307FC0E941619CDB7DEB7ECE00C94DD
:022C9A003318ED
:102C9C000E94791788F09F5798F0B92F9927B75150
:102CAC00B0F0E1F0660F771F881F991F1AF0BA95E4
:102CBC00C9F714C0B13091F00E94161AB1E0089512
:102CCC000C94161A672F782F8827B85F39F0B93F04
:102CDC00CCF3869577956795B395D9F73EF4909597
:0E2CEC008095709561957F4F8F4F9F4F089593
:102CFA00CF93C82F15BA14BA45B381E090E09C016E
:102D0A000C2E02C0220F331F0A94E2F7242B25BB94
:102D1A0024B36C5F7F4F02C0880F991F6A95E2F750
:102D2A00822B84BB84E190E00E94FD1623B330E03D
:102D3A0002C035952795CA95E2F781E090E020FF19
:0A2D4A0002C080E090E0CF910895F0
:102D5400E894DF93CF93FC01DB010E9444197F9335
:102D64006F93E9019A01AC01BF93AF933F932F9303
:102D7400DF010E94441926F46C1B7D0B820B930B1C
:102D84009E01EB01FC010E94CF19AF91BF912F91DD
:102D94003F910E94CF19BE01CF01F9012F913F91BC
:062DA400CF91DF910895BC
:102DAA00B89AB99ABA9A80E190E00E94FD1660E05A
:102DBA0080E30E94261985E090E00E94FD1660E0FB
:102DCA0080E30E94261981E090E00E94FD1660E0EF
:102DDA008CE30E94061960E08CE00E94061960E00C
:102DEA0086E00E94061960E081E00E9406190895B3
:102DFA00CF93DF93EC0183E083BF1BC020E034E272
:102E0A0044EF57E46FE672E183E89AE30E94281AD6
:102E1A009B01AC0160E070E080E893E40E94011A33
:102E2A000E944E1662BF88B7816088BF08B600FE4E
:0E2E3A00FDCF219718F713BEDF91CF910895B9
:102E48000F931F93CF93DF9300E010E018C0BE01EB
:102E5800C8010E947D16009749F0000F111F000F4E
:102E6800111FC00FD11FCE0101960CC02196C4308E
:102E7800D10569F70F5F1F4F0430110519F0C0E045
:0E2E8800D0E0E5CFDF91CF911F910F9108951B
:102E9600CF92DF92EF92A82FCB016C01EA2E2FEF93
:102EA600C21AD20AE20AFC018491A7FD8081882316
:102EB60089F061E00E9406198FEFC81AD80AE80A5D
:102EC600AE2DC6010197A109FC018491A7FD808161
:0C2ED6008111EFCFEF90DF90CF900895B6
:102EE20057FD9058440F551F59F05F3F71F04795B9
:102EF200880F97FB991F61F09F3F79F0879508959E
:102F0200121613061406551FF2CF4695F1DF08C0BC
:102F1200161617061806991FF1CF869571056105D9
:042F22000894089572
:102F2600A1E21A2EAA1BBB1BFD010DC0AA1FBB1FC7
:102F3600EE1FFF1FA217B307E407F50720F0A21B39
:102F4600B30BE40BF50B661F771F881F991F1A94A6
:102F560069F760957095809590959B01AC01BD01D0
:042F6600CF010895FA
:102F6A00FA0160387105CCF0623871051CF06338DB
:102F7A00710599F4A081B1819D012C5F3F4F318386
:102F8A0020834D915D916D917C91FC014083518329
:102F9A006283738381E090E0089580E090E0089571
:102FAA00CF93DF939C01EB01880F991F880F991F1C
:102FBA00092E000CAA0B8C579E4FAF4FFC015A2FBB
:102FCA000E947A19CD2B39F02230310524F060584D
:0C2FDA007E4A8E4F9F4FDF91CF910895EB
:102FE60097FB10F8169400080F93083098F00850D5
:102FF600232F342F452F562F672F782F892F902D6B
:10300600F4CF059497958795779567955795479546
:0C301600379527950A95AAF70F910895A9
:103022002F923F924F925F926F927F928F929F92D6
:10303200AF92BF92CF92DF92EF92FF920F931F93C4
:10304200CF93DF93CDB7DEB7CA1BDB0B0FB6F89475
:08305200DEBF0FBECDBF0994E3
:10305A002A88398848885F846E847D848C849B841E
:10306A00AA84B984C884DF80EE80FD800C811B812C
:10307A00AA81B981CE0FD11D0FB6F894DEBF0FBE5B
:06308A00CDBFED01089529
:103090000F93083090F0982F872F762F652F542F9D
:1030A000432F322F22270850F4CF220F331F441F03
:1030B000551F661F771F881F991F0A95B2F70F913A
:0230C000089571
:1030C200A2E0B0E0E7E6F8E10C941F188C013A8325
:1030D20029839E012F5F3F4F0E94F400F801208157
:1030E20024FF02C08FEF9FEF2296E4E00C943B187E
:1030F200052E97FB1EF400940E94E91957FD07D094
:103102000E94931707FC03D04EF40C94E9195095D2
:0E3112004095309521953F4F4F4F5F4F0895E8
:10312000CF92DF92EF926B01E82EA82FCB01FC012A
:103130002491A7FD2081222319F00196A11DF7CF2C
:0C3140008C199D09EF90DF90CF9008954E
:10314C00CF93C62F98E2899FC00D112460E082E0D6
:10315C000E940619CC2331F060E084E10E9406192C
:08316C00C150D1F7CF91089585
:1031740097FB072E16F4009407D077FD09D00E9420
:10318400CE1807FC05D03EF4909581959F4F089585
:08319400709561957F4F0895CD
:10319C00AA1BBB1B51E107C0AA1FBB1FA617B70771
:1031AC0010F0A61BB70B881F991F5A95A9F780958D
:0831BC009095BC01CD010895BE
:1031C400A0E0B0E0E8EEF8E10C9421189E01265F3F
:1031D4003F4F4F81588569858D819E810E946E196C
:0631E400E2E00C943D182E
:1031EA00092E0394000C11F4882352F0BB0F40F40B
:1031FA00BF2B11F460FF04C06F5F7F4F8F4F9F4F4B
:02320A00089525
:10320C00C098C19A11BA90B3C29A00000000000095
:10321C0011BA90B3C29899239CF30E942619089571
:10322C006095709580959095309540955095219529
:10323C003F4F4F4F5F4F6F4F7F4F8F4F9F4F0895B3
:10324C00662311F0C09A01C0C098C19882BB8FEF61
:0E325C0081BBC29A000000000000C2980895D5
:10326A0097FB57FF0C94AB169F938F930E94AB1654
:0E327A006E1B7F0BAF91BF918A0B9B0B0895CB
:10328800A29FB001B39FC001A39F700D811D11249F
:0E329800911DB29F700D811D1124911D08958E
:1032A600689401C0E8948F929F92CF93DF930E9417
:0C32B600F113DF91CF919F908F9008954D
:1032C200992777FD05C005900D920197E1F70895C2
:0A32D20001900D920197E1F70895B5
:1032DC000F931F9389019A01462F6FEF7FE70E948E
:0832EC009F131F910F9108953B
:1032F40057FD05C0659175918591959108956191EA
:083304007191819191910895EE
:10330C000024A7FD00942A0F301D401D501D601D88
:08331C00701D801D901D089535
:103324000024A7FD00942A173005400550056005C8
:08333400700580059005089565
:10333C00EC010E94371A0E94361ACE010E94381AEC
:06334C00CE010E94341ABC
:103352000E944419A59F900DB49F900DA49F800DCB
:06336200911D11240895E5
:103368002A0D3B1D4C1D5D1D6E1D7F1D801F911F6D
:023378000895B6
:10337A00FC01480F591FE417F50711F06193FBCFC1
:02338A000895A4
:10338C009C01215631092A31310510F48F7599278A
:02339C00089592
:10339E000E944419460F571FC81FD91F08F43196B3
:0233AE00089580
:1033B0002A153B054C055D056E057F0580079107C5
:0233C00008956E
:1033C2009C01215431092A31310508F480620895A3
:1033D20090958095709561957F4F8F4F9F4F08957F
:1033E200B7FF0C94A9190E94A919821B930B089587
:1033F20057FD03C06591759108956191719108958A
:0E3402005058BB27AA270E947B120C94F51885
:0E34100000240A9416161706180609060895D9
:0E341E0000240A9412161306140605060895DB
:0E342C00E894BB2766277727CB0197F9089510
:0C343A0097F99F6780E870E060E008955B
:0A34460060E081E00E94061908957D
:083450000E94A7110C94F5186D
:063458009FEF80EC0895D7
:06345E0080E090E00895FB
:043464000C940000C4
:043468000E94550069
:02346C000895C1
:02346E000895BF
:023470000895BD
:00000001FF
