:100000000C942A000C94D6010C94D6010C94D601C1
:100010000C94D6010C94D6010C94D6010C94D60104
:100020000C94D6010C94D6010C94D6010C94D601F4
:100030000C94D6010C94D6010C94D6010C94D601E4
:100040000C94D6010C94D6010C94D6010C94D601D4
:100050000C94D60111241FBECFE5D8E0DEBFCDBF82
:0C0060000E947F010C94A201F894FFCFD5
:10006C000FC00E94B40138F00E94BB0120F0952310
:10007C0011F00C94C9010C94D30111240C94C301FC
:10008C000E945D0170F3959FC1F3950F50E0551FD1
:10009C00629FF001729FBB27F00DB11D639FAA27D1
:1000AC00F00DB11DAA1F649F6627B00DA11D661F20
:1000BC00829F2227B00DA11D621F739FB00DA11D41
:1000CC00621F839FA00D611D221F749F3327A00DFB
:1000DC00611D231F849F600D211D822F762F6A2F97
:1000EC0011249F5750409AF0F1F088234AF0EE0FFC
:1000FC00FF1FBB1F661F771F881F91505040A9F729
:10010C009E3F510580F00C94C9010C94C3015F3FD4
:10011C00E4F3983ED4F3869577956795B795F79564
:10012C00E7959F5FC1F7FE2B880F911D96958795DC
:04013C0097F9089592
:1001400011C00E94B40138F00E94BB0120F039F4C4
:100150009F3F19F426F40C94D3010EF4E095E7FBCD
:100160000C94C901E92F0E945D0158F3BA17620788
:1001700073078407950720F079F4A6F50C94C20163
:100180000EF4E0950B2EBA2FA02D0B01B9019001B2
:100190000C01CA01A0011124FF27591B99F0593FF6
:1001A00050F4503E68F11A16F040A22F232F342F3E
:1001B0004427585FF3CF469537952795A795F0408C
:1001C0005395C9F77EF41F16BA0B620B730B840BA1
:1001D000BAF09150A1F0FF0FBB1F661F771F881F59
:1001E000C2F70EC0BA0F621F731F841F48F48795B1
:1001F00077956795B795F7959E3F08F0B0CF9395A3
:0E020000880F08F09927EE0F979587950895BF
:10020E000E94650188F09F5798F0B92F9927B75132
:10021E00B0F0E1F0660F771F881F991F1AF0BA959C
:10022E00C9F714C0B13091F00E94C201B1E0089537
:10023E000C94C201672F782F8827B85F39F0B93F29
:10024E00CCF3869577956795B395D9F73EF490954F
:0E025E008095709561957F4F8F4F9F4F08954B
:10026C00CF93DF93EC0183E083BF1BC020E034E22B
:10027C0044EF57E46FE672E183E89AE30E94CF0102
:10028C009B01AC0160E070E080E893E40E94AD015A
:10029C000E94070162BF88B7816088BF08B600FE64
:0E02AC00FDCF219718F713BEDF91CF91089573
:1002BA0057FD9058440F551F59F05F3F71F047950D
:1002CA00880F97FB991F61F09F3F79F087950895F2
:1002DA00121613061406551FF2CF4695F1DF08C011
:1002EA00161617061806991FF1CF8695710561052E
:0402FA0008940895C7
:1002FE0081E08ABB80E881BBC1E0879B09C08BB3DC
:10030E009C2F981B9BBB84EF91E00E943601F5CF8A
:04031E001BBAF3CF44
:10032200092E0394000C11F4882352F0BB0F40F401
:10033200BF2B11F460FF04C06F5F7F4F8F4F9F4F41
:0203420008951C
:10034400EC010E94DB010E94DA01CE010E94DC0173
:06035400CE010E94D80159
:0E035A005058BB27AA270E94A0000C949101C6
:0E03680000240A9416161706180609060895B2
:0E03760000240A9412161306140605060895B4
:0E038400E894BB2766277727CB0197F90895E9
:0C03920097F99F6780E870E060E0089534
:08039E000E9436000C9491014D
:0603A6009FEF80EC0895BA
:0403AC000C940000AD
:0403B0000E94340073
:0203B4000895AA
:0203B6000895A8
:0203B8000895A6
:00000001FF
