:100000000C9449000C9429150C9429150C9429156D
:100010000C9429150C9429150C9429150C94291568
:100020000C9429150C9429150C9429150C94291558
:100030000C9429150C9429150C9429150C94291548
:100040000C9429150C9429150C9429150C94291538
:100050000C94291568135D1368135A1368135A1307
:10006000681368135A1368135A1368138B115B11C2
:100070005E116111641167116A116D1170117311B4
:10008000761179117C117F11821185110060006257
:10009000800011241FBECFE5D8E0DEBFCDBFECE865
:1000A000F0E040E017C0B591A591359125910591FB
:1000B00007FD0CC095918591EF01F92FE82F059070
:1000C0000D92A217B307D9F7FE0104C01D92A21723
:1000D000B307E1F7E139F40731F70E94C2110C943C
:0600E000CD14F894FFCFDF
:1000E60054696D653A20253032643A253032643AD7
:1000F60025303264414D0054696D653A2025303211
:10010600643A253032643A25303264504D004461F9
:1001160074653A20253032642F253032642F25301D
:1001260032640053657474696E67204D6F646500B0
:100136002842295420284329442028442958004588
:1001460072726F72212045786974696E670054690E
:100156006D653A20256425643A256425643A25644C
:1001660025640054696D653A2048483A4D4D3A5326
:10017600530054696D653A2030303A30303A3030A9
:10018600005069636B20414D206F7220504D00284E
:10019600412920414D202028422920504D0044610C
:1001A60074653A20256425642F256425642F25640B
:1001B60025642564256400446174653A204D4D2FFD
:1001C60044442F5959595900446174653A203030D6
:0901D6002F30302F3030303000A2
:1001DF0068076C094C836A9074A07AC000806888A5
:0601EF0000846C82008117
:0701F500286E756C6C2900F7
:0601FC00286E696C290069
:10020200A3EAB0E0E7E0F1E00C948B134C01590152
:10021200C756DF4F488359836A83C959D040212C7E
:10022200312C6E012BE8C20ED11C85E2782E2601FC
:1002320030E8632ECE018D569F4FC456DF4F99830F
:100242008883CC59D0409C0140E8CF55DF4F2883AA
:1002520039834A83C15AD040C756DF4F4881C959B2
:10026200D040C656DF4F5881CA59D040C556DF4FDD
:100272006881CB59D040FA01849167FD808188233F
:1002820009F4C9C3CF57DF4F19821882C158D04031
:100292008FEF9FEFCD57DF4F99838883C358D040AC
:1002A200CB57DF4F19821882C558D040A1E0B0E089
:1002B200AC0FBD1FC957DF4FB983A883C758D040C1
:1002C200E0E8F0E0C757DF4FF983E883C958D04030
:1002D200CA01A62FE12CF12CFC012491A7FD20815B
:1002E20021111BC0E114F10401F19701C4010E9424
:1002F2008E11C756DF4F88819981AA81C959D04092
:100302008E0D9F1DA11DF7FCAA95C756DF4F88834E
:100312009983AA83C959D04008C00196A11D2532EC
:1003220009F3FFEFEF1AFF0AD7CFC756DF4F8881D5
:100332009981AA81C959D040FC012491A7FD20814D
:10034200253209F056C39C014A2F2F5F3F4F4F4F72
:10035200C256DF4F288339834A83CE59D040C756CD
:10036200DF4F288339834A83C959D040C756DF4FAC
:1003720088819981AA81C959D040FC012491A7FDA5
:1003820020812B3241F4CF57DF4F28813981C15868
:10039200D04024600BC02C32CCF02D3259F5CF570F
:1003A200DF4F28813981C158D0402160CF57DF4FBC
:1003B20039832883C158D0400196A11DC756DF4F0B
:1003C20088839983AA83C959D040D0CF203241F47F
:1003D200CF57DF4F28813981C158D0402860E6CFFE
:1003E200233291F4CF57DF4F28813981C158D04051
:1003F2002061DCCF203341F4CF57DF4F2881398190
:10040200C158D0402260D2CF2A3299F50196A11D5F
:10041200C756DF4F88839983AA83C959D040D50133
:10042200ED91FC911197CF0102968D939C9380815F
:100432009181CB57DF4F99838883C558D04097FF6E
:100442003EC0CF57DF4F28813981C158D040B1E03B
:100452002B27CF57DF4F39832883C158D04091953E
:1004620081959109CB57DF4F99838883C558D04036
:1004720026C0BC018A2F0E94C610CB57DF4F99833A
:100482008883C558D040C756DF4F288139814A81B9
:10049200C959D040F901849147FD8081082E000C92
:1004A200990BC0970A9758F42F5F3F4F4F4FC7568B
:1004B200DF4F288339834A83C959D040E4CFCF57CD
:1004C200DF4F88819981C158D04080FF07C08D7F5E
:1004D200CF57DF4F99838883C158D040C756DF4F2B
:1004E20088819981AA81C959D040FC012491A7FD34
:1004F20020812E3209F058C0CD57DF4F1982188261
:10050200C358D0409C014A2F2F5F3F4F4F4FC756D1
:10051200DF4F288339834A83C959D040F901549166
:1005220047FD50815A32D1F40296A11DC756DF4FC2
:1005320088839983AA83C959D040D501ED91FC9152
:100542001197CF0102968D939C9380819181CD5713
:10055200DF4F99838883C358D04026C0842FB901C6
:100562000E94C610CD57DF4F99838883C358D0406D
:10057200C756DF4F288139814A81C959D040F901D4
:10058200849147FD8081082E000C990BC0970A9731
:1005920058F42F5F3F4F4F4FC756DF4F28833983A1
:1005A2004A83C959D040E4CFCE0187569F4F0E945B
:1005B200E60F182FC756DF4F2881C959D040C656BB
:1005C200DF4F8881CA59D040C556DF4F9881CB5939
:1005D200D040E22FF82F849197FD8081082E000CE5
:1005E200990B0E94EA148936910509F45AC0B4F4B1
:1005F2008336910509F466C144F48532910509F404
:10060200A1C18136910529F1B3C18436910509F45E
:1006120048C0883691050CF42DC1AAC180379105D6
:1006220009F4CBC04CF48E36910509F419C18F360A
:10063200910509F47CC09CC18537910509F454C029
:100642008837910509F496C08337910509F090C166
:1006520058C1612F70E0A501C6010E941313892BB6
:1006620009F4B7C1C756DF4F88819981AA81C95958
:10067200D0409C014A2F2F5F3F4F4F4FC756DF4F4D
:10068200288339834A83C959D040FC012491A7FDAC
:100692002081A601BE016F577F4FC4010E9426151B
:1006A20095C1612F70E0950141E050E0C6010E94C2
:1006B2006C0A892B09F48DC1C756DF4F8881998155
:1006C200AA81C959D0400196A11DC756DF4F888320
:1006D2009983AA83C959D040A601BE016F577F4FA3
:1006E200C4010E94F30872C1612F70E0950140E0DD
:1006F20050E0C6010E946C0A892B09F46AC1C756F0
:10070200DF4F88819981AA81C959D0400196A11DE4
:10071200C756DF4F88839983AA83C959D040A6015F
:10072200BE016F577F4FC4010E94EB0E4FC1612F74
:1007320070E0950140E050E0C6010E946C0A892BEE
:1007420009F447C1C756DF4F88819981AA81C959E7
:10075200D0400196A11DC756DF4F88839983AA8393
:10076200C959D040A601BE016F577F4FC4010E94F4
:10077200B50D2CC1612F70E0950140E050E0C6013B
:100782000E946C0A892B09F424C1C756DF4F888165
:100792009981AA81C959D0409C014A2F2F5F3F4FAE
:1007A2004F4FC756DF4F288339834A83C959D040F8
:1007B200FC012491A7FD20814BC0950140E050E04F
:1007C20060EF70E0C6010E946C0A892B09F401C136
:1007D200C756DF4F88819981AA81C959D0400196B5
:1007E200A11DC756DF4F88839983AA83C959D04078
:1007F20086E02CEF31E040E0F901DE01AD56BF4F5B
:10080200742F0E94A814D6012C9111963C91119735
:1008120012964C91129713965C91139714966C91C1
:10082200149715967C91159716968C911697179694
:100832009C91A0E00E94C11451F400E010E0CF5559
:10084200DF4F288139814A81C15AD040B9C028E797
:10085200A601BE016F577F4FC4010E94B307B6C005
:10086200612F70E09501A1014E0D5F1DC6010E942E
:10087200DF0CAFC0612F70E0A501C6010E94131307
:10088200892B09F4A6C0C756DF4F88819981AA81B6
:10089200C959D0409C014A2F2F5F3F4F4F4FC75637
:1008A200DF4F288339834A83C959D040FC01249100
:1008B200A7FD2081A601BE016F577F4FC4010E9490
:1008C200261584C0103809F084C0C756DF4F8881CE
:1008D2009981AA81C959D0400196A11DC756DF4FFF
:1008E20088839983AA83C959D040D501ED91FC919F
:1008F2001197CF0102968D939C938081F60180839C
:100902005BC0103809F065C0C756DF4F88819981F6
:10091200AA81C959D0400196A11DC756DF4F8883CD
:100922009983AA83C959D040D501ED91FC911197C1
:10093200CF0103968D939C9320813181428100E007
:1009420010E03EC0103809F044C0C756DF4F88811E
:100952009981AA81C959D0400196A11DC756DF4F7E
:1009620088839983AA83C959D040F601708224C032
:10097200D6017C92C256DF4F288139814A81CE59F5
:10098200D040C756DF4F288339834A83C959D040A4
:10099200CF57DF4F19821882C158D040CB57DF4F53
:1009A20019821882C558D0408FEF9FEFCD57DF4F85
:1009B20099838883C358D04001E010E0462D92010C
:1009C200BE016F577F4FC4010E94860E8E0D9F1D80
:1009D20011C0C756DF4F88819981AA81C959D04079
:1009E2000196A11DC756DF4F88839983AA83C959EF
:1009F200D040C7017101E80EF91EE214F3044CF471
:100A02008FE490E090936100809360008FEF9FEFFE
:100A120003C0170121CCC101CD55DF4FE2E10C9497
:020A2200C213FD
:100A24006F927F928F92AF92BF92CF92DF92EF92AA
:100A3400FF920F931F93CF93DF93CDB7DEB7CA55C1
:100A4400D1090FB6F894DEBF0FBECDBF7C012DEBEC
:100A540031E040E081E1F901DE011196742F0E943A
:100A6400A8142EEC31E040E081E1F901DE01529658
:100A7400742F0E94A814BE016E5E7F4FCE010196B2
:100A84000E946E13FE01E55BFF4F80E1DF011D92C2
:100A94008A95E9F76F0100E010E00F2EF4EA6F2E5B
:100AA400F1E07F2EF0E08F2EF02D5E01B3E2AB0E6D
:100AB400B11C0E94A4120E9452118831910509F4BC
:100AC4006DC0F601819391936F016B968FAD6B9717
:100AD4008F936A968FAD6A978F9369968FAD699756
:100AE4008F9368968FAD68978F9367968FAD67974E
:100AF4008F9366968FAD66978F9365968FAD659746
:100B04008F9364968FAD64978F9363968FAD63973D
:100B14008F9362968FAD62978F9361968FAD619735
:100B24008F9360968FAD60978F932F968FAD2F978D
:100B34008F932E968FAD2E978F932D968FAD2D97E5
:100B44008F932C968FAD2C978F938F927F926F9269
:100B5400BF92AF920E944714B501CE0101960E9444
:100B64006E1384EF91E00E9454120F5F1F4F0FB673
:100B7400F894DEBF0FBECDBF0630110551F4B501A8
:100B8400CE0101960E946E1384E690E00E945412F6
:100B940090CF0830110509F08CCF04C0083011053E
:100BA4000CF487CF2D962EAD3FAD2D97C901880F3C
:100BB400991F220F331F220F331F220F331F280FB9
:100BC400391F2F960EAD1FAD2F97020F131FC801AB
:100BD40001970C9708F05EC061968EAD9FAD61974A
:100BE4006C01CC0CDD1C880F991F880F991F880F8E
:100BF400991F8C0D9D1D6396CEACDFAC6397C80E18
:100C0400D91E65962EAD3FAD659788EE93E0289F7B
:100C1400A001299F500D389F500D112467962EADC9
:100C24003FAD679764E6629FC001639F900D1124F6
:100C3400480F591F69968EAD9FAD6997BC01660F29
:100C4400771F9C01220F331F220F331F220F331FE4
:100C5400CB01820F931F840F951F6B96AEACBFAC74
:100C64006B97A80EB91EB501C8010E9451138C15CB
:100C74009D0584F0DD2074F0BB2064F0D70111964B
:100C84001C930E931396DC92CE9212971596BC92F7
:100C9400AE92149781E090E0C65ADF4F0FB6F894F5
:100CA400DEBF0FBECDBFDF91CF911F910F91FF909B
:100CB400EF90DF90CF90BF90AF908F907F906F9028
:020CC400089591
:100CC6006F927F928F92AF92BF92CF92DF92EF9206
:100CD600FF920F931F93CF93DF93CDB7DEB7CF5617
:100CE600D1090FB6F894DEBF0FBECDBF7C0129E651
:100CF60031E040E08FE0F901DE011196742F0E9489
:100D0600A81428E731E040E08FE0F901DE015096B3
:100D1600742F0E94A814BE01605F7F4FCE0101961A
:100D26000E946E13FE01E95BFF4F8CE0DF011D920E
:100D36008A95E9F76F0100E010E00F2EF4E56F2EBB
:100D4600F1E07F2EF0E08F2EF02D5E01BFE1AB0EBD
:100D5600B11C0E94A4120E9452118831910509F417
:100D66005BC0F601819391936F0163968FAD639794
:100D76008F9362968FAD62978F9361968FAD6197D1
:100D86008F9360968FAD60978F932F968FAD2F9729
:100D96008F932E968FAD2E978F932D968FAD2D9781
:100DA6008F932C968FAD2C978F932B968FAD2B9779
:100DB6008F932A968FAD2A978F9329968FAD299771
:100DC6008F9328968FAD28978F938F927F926F92ED
:100DD600BF92AF920E944714B501CE0101960E94C0
:100DE6006E1384EF91E00E9454120F5F1F4F0FB6EF
:100DF600F894DEBF0FBECDBF0630110509F0A9CFAE
:100E0600BE01615E7F4FCE0101960E946E1384E69D
:100E160090E00E94541204C0063011050CF499CFDC
:100E260027E831E040E08EE0F901DE01AD5ABF4F20
:100E3600742F0E94A81425E931E040E08FE0F90103
:100E4600DE01AF59BF4F742F0E94A814BE016F591F
:100E56007F4FCE018D5A9F4F0E946E130E94A4129F
:100E6600049741F481E090E0D7011E969C938E93FF
:100E76001D9707C00E94A412089781F7F7011686EE
:100E8600158629968EAD9FAD29979C01220F331F9B
:100E9600880F991F880F991F880F991F820F931F1C
:100EA6002B962EAD3FAD2B97820F931F9C012150A1
:100EB60031092C303105E8F52D962EAD3FAD2D9735
:100EC600A901440F551F220F331F220F331F220F74
:100ED600331F240F351F2F964EAD5FAD2F97240F6E
:100EE600351F2C33310528F561964EAD5FAD619700
:100EF600BA01660F771F440F551F440F551F440F45
:100F0600551F460F571F63966EAD7FAD6397460F0D
:100F1600571F4C33510568F4D70117969C938E934F
:100F2600169719963C932E9318971B965C934E939F
:100F36001A9781E090E0C159DF4F0FB6F894DEBFF3
:100F46000FBECDBFDF91CF911F910F91FF90EF9014
:100F5600DF90CF90BF90AF908F907F906F90089565
:100F6600A4E1B0E0E9EBF7E00C948B1398878F834C
:100F76007A8369835C8B4B8B122FDB011296ED9182
:100F8600FC91139714962D913C9115973E832D83D2
:100F9600ED90FC90119716962D903C901797F7FDC3
:100FA60003C0E894E1F802C0E1E0F0E0C701807117
:100FB60099279A878987E4FE1FC0AB89BC892C9143
:100FC60011963C91119712964C91129713965C913B
:100FD600139714966C91149715967C9115971696FF
:100FE6008C91169717969C91A0E00E94C11421F04F
:100FF6008D819E81029702C08D819E819701287006
:1010060033273C872B87E3FC0197AB89BC894C903F
:1010160011965C90119712966C90129713967C908D
:10102600139714968C90149715969C901597169670
:10103600AC9016971796BC90A981BA811896CD9058
:10104600DC901997B1E0CB1AD108D101AC0DBD1DCA
:101056001C929C838B839F01281B390B3E872D870F
:10106600C70182709927988B8F87812F012E000CDC
:10107600990BDC01A154B109BA8BA98B32E0C316D6
:10108600D10434F489859A85892B09F04CC073C044
:101096009201A301B401C501A0E00E94C11481F12F
:1010A600B1E0CB1AD108C2018F7099278A30910519
:1010B60014F4C09602C0895A9F4FE989FA897A9733
:1010C60048F49C012062215631092A31310510F479
:1010D6000E94E114F101EC0DFD1D80832B813C8102
:1010E600215031093C832B839201A301B401C50130
:1010F60004E00E94351329013A014B015C01BECF81
:101106008D859E85AB81BC818A0F9B1F181619069B
:101116003CF21A161B060CF0B5CFEF85F889EF2BBB
:1011260009F0BECFAFCFAB89BC892C9111963C910B
:10113600119712964C91129713965C9113971496E9
:101146006C91149715967C91159716968C91169717
:1011560017969C91A0E00E94C11469F0F101EC0D74
:10116600FD1D31971083B2E0CB1AD108F101EC0DC9
:10117600FD1D80E38083EB85FC85EF2B41F0F1E0DC
:10118600CF1AD108F101EC0DFD1D80E28083A98103
:10119600BA8118962D913C911997215031092C1935
:1011A6003D09C20CD31CA60160E80D811E818F810A
:1011B60098850E94580C9C01EF81F8858081918169
:1011C60090FF09C0A981BA8112968D919C911397BF
:1011D600821793070CF4C9016496E2E10C94C213DA
:1011E600ADE0B0E0E9EFF8E00C948B139A878987BD
:1011F6007C836B83FA01DB011296CD90DC9013970A
:1012060014968D919C9115979E838D83ED90FC90FD
:101216001197FA82E98216960D90BC91A02DB88797
:10122600AF832080318042805380648075808680C1
:1012360097808101B42DF52DE62D7B868C869D86C3
:101246009101A201B301C401A0E00E94C1144CF4B3
:101256000E947B148901B42FF52FE62F7B878C879C
:101266009D87D7FC04C0E894E1F8FA82E9829101EF
:10127600A201B301C401A0E0ED80FE800E94C1146A
:101286001CF0898182FF04C081E0E81AF10805C0DC
:1012960083FF03C091E0E91AF108CE0101965C01D3
:1012A6008AE0C82ED12C2B2F3F2F4E2F5B856C85C5
:1012B6007D858B819C810E94250BFC019101A201F9
:1012C600B301C401A0E00E94C1141CF0898182FF11
:1012D60012C031970F8118850E0F1F1F9101A201B1
:1012E600B301C401A0E00E94C11414F08BE201C056
:1012F6008DE2D80108C083FF07C03197AF81B8855A
:10130600AE0FBF1F80E28C93E980FA80AB81BC816F
:1013160018962D913C911997215031092E1B3F0BA0
:101326008F819885E80FF91FAF0160E80D811E8156
:1013360089859A850E94580C9C01A985BA858D914C
:101346009C9190FF07C0EB81FC818281938182177B
:0E13560093070CF4C9012D96E2E10C94C2132A
:10136400AF92BF92CF92DF92EF92FF920F931F93AF
:10137400CF93DF93FC018285938501966CE370E043
:101384000E941F14082F192F8287938701151105B6
:1013940009F089C0E084F1842BE3E216F10429F416
:1013A40011861086E82EF92E08C08FEFE81AF80A85
:1013B400F186E086E114F104E9F4868197818B30AB
:1013C400910569F4258536852130310519F4168691
:1013D40015860DC021E030E03687258708C08C30A3
:1013E400910529F481E090E09783868368C0019693
:1013F40097838683EF01C480D580A080B180B60135
:10140400C5010E9451132E813F812C30310509F012
:1014140056C02D853E852130310509F047C0E114C1
:10142400F10409F043C00115110509F03FC02A81F8
:101434003B818217930729F481E090E09B838A83A0
:1014440012C02F5F3F4F3B832A8321303105B9F50A
:101454000AC08D859E85019771F5E114F10459F553
:101464000115110541F52CE0A216B10429F481E01F
:1014740090E09983888311C08FEFA81AB80AB982C3
:10148400A882AA94AB28D9F408C08D859E850197BB
:10149400B1F4EF28A1F4012B91F48FEFC81AD80A04
:1014A400DD82CC820CC0E084F184A4CF8A819B814C
:1014B400019729F4CECF88819981019731F3DF9187
:1014C400CF911F910F91FF90EF90DF90CF90BF903D
:0414D400AF90089538
:1014D8000F931F93CF93DF93FC01D90168387105EF
:1014E80031F194F461387105B1F12CF4603871056B
:1014F80009F478C09FC06238710509F459C064388E
:10150800710509F46FC096C0603A710509F448C0C6
:101518002CF46039710509F44BC08CC0603C71052E
:1015280009F476C0603F710509F472C083C0CD919B
:10153800DC911197CE0102968D939C93452B39F03F
:101548009881892F880F880B908381835BC088815D
:101558008083118268C0CD91DC911197CE010496E9
:101568008D939C93452B99F088819981AA81BB81A1
:10157800AC01BD01770F440B542FBA0180839183CE
:10158800A283B383448345834683478328C0088165
:1015980019812A813B81008311832283338345C0CB
:1015A800CD91DC911197CE0102968D939C9323C027
:1015B800CD91DC911197CE0108968D939C937881FB
:1015C80069815A814B813C812D819E818F817083F5
:1015D800618352834383348325839683878381E0A1
:1015E80090E02AC0CD91DC911197CE0102968D939F
:1015F8009C93452BA1F099812881892F880F880B0E
:101608002083918382838383848385838683E6CF43
:10161800CD91DC911197CE0102968D939C93088110
:101628001981008311831282138214821582168213
:101638001782D5CF80E090E0DF91CF911F910F9175
:02164800089503
:10164A00A2E1B0E0EBE2FBE00C948B13FC010A8B05
:10165A001B832C83732E642E552E462E7D83CC86B7
:10166A00D886BF82AE82868197819B878A87D50179
:10167A004D915C91228133818085918501971C016E
:10168A0037FF02C021E030E0EA85FB85E80FF91F49
:10169A0010824701E1E0F0E0FA83E983C9018E197B
:1016AA009F099E878D87DA01A270BB27B88BAF8707
:1016BA00B885BB0FBB0BB98B1214130474F0A98144
:1016CA00BA81AB2B09F05CC0AE81BF818D919C9130
:1016DA0011978F7E8D939C9353C02A893B814C81AD
:1016EA00572D662D752D842D9D81A0E00E94C11471
:1016FA00B1F1E1E02E1A3108FC85F987AF2EB884E2
:10170A00C988DC2CEC2CFC2C0C2D1C2D2A893B8145
:10171A004C81572D662D752D842D9D810E949A141A
:10172A00C90129839A83EA85FB85E20DF31D805D51
:10173A00808381E0881A91082A893B814C81572D40
:10174A00662D752D842D9D810E949C142A8B3B83C6
:10175A004C83752E662E572E482E9D83ADCF8D85D0
:10176A009E85880D991D181619061CF2181419045D
:10177A000CF0A5CFEF85F889EF2B09F0BACF9FCFF0
:0A178A00C1016296E2E10C94C21363
:101794000F931F93CF93DF93CDB7DEB7C055D10915
:1017A4000FB6F894DEBF0FBECDBF8C010E941A1590
:1017B400F801858596850197F1F483858F93828559
:1017C4008F9381858F9380858F9387818F93868173
:1017D4008F9386EE90E0A0E0AF939F938F93CE011A
:1017E40001969F938F930E9447140FB6F894DEBF1F
:1017F4000FBECDBF1EC0F80183858F9382858F9362
:1018040081858F9380858F9387818F9386818F9332
:101814008DEF90E0A0E0AF939F938F93CE0101965C
:101824009F938F930E9447140FB6F894DEBF0FBEA8
:10183400CDBF60E081E00E940B14BE016F5F7F4F5B
:1018440080E80E94CB12F80185818F9384818F9365
:1018540083818F9382818F9381818F9380818F93F2
:1018640084E191E0A0E0AF939F938F938E01075D95
:101874001F4F1F930F930E94471460E080E00E9463
:101884000B14B80180E80E94CB120FB6F894DEBFA7
:101894000FBECDBFC05BDF4F0FB6F894DEBF0FBEE7
:0C18A400CDBFDF91CF911F910F910895EF
:1018B0002F923F924F926F927F928F92AF92BF92F0
:1018C000CF92DF92EF92FF920F931F93CF93DF930C
:1018D000CDB7DEB766970FB6F894DEBF0FBECDBFAB
:1018E0005C013A01862E6901C701817099279C8BA2
:1018F0008B8BE0FC1DC020173107D4F47801EC1865
:10190000FD08FE8AED8AA70191E1E916F10410F0C5
:1019100040E150E060E270E0CE0101969A8B898B45
:101920000E94D81489899A891C0120E8422E0BC094
:101930009601682DA301C5010E948E11C016D10623
:10194000ECF2C60125C090E1E916F10458F020E15F
:1019500030E0642DA101C5010E948E1180E1E81ADA
:10196000F108F1CF2D893E892F70332789899A8913
:10197000AC0160E8C5010E948E118B899C89892B7E
:1019800031F49601682DA301C5010E948E11C80192
:1019900066960FB6F894DEBF0FBECDBFDF91CF9134
:1019A0001F910F91FF90EF90DF90CF90BF90AF907D
:0E19B0008F907F906F904F903F902F900895F2
:1019BE00CF93DF93DC01F90164387105D9F164F43A
:1019CE006138710521F16238710509F440C0603843
:1019DE00710509F054C02EC060397105C1F184F44F
:1019EE006838710509F04BC0C081D181CE010296D5
:1019FE0091838083E881F981ED93FC9340833CC011
:101A0E00603A7105B9F0603C7105A1F038C0C08133
:101A1E00D181CE01029691838083E881F981ED9385
:101A2E00FC93052E000C660B770B4083518362836B
:101A3E00738322C0C081D181CE01029691838083AF
:101A4E00E881F981ED93FC935183408315C0C081E9
:101A5E00D181CE01029691838083E881F981ED9345
:101A6E00FC9351834083852F880F880B8283838359
:101A7E00848385838683878381E090E002C080E043
:081A8E0090E0DF91CF91089573
:101A96000FC00E94F91438F00E94001520F095231B
:101AA60011F00C940E150C94231511240C940815A2
:101AB6000E94F11270F3959FC1F3950F50E0551FE8
:101AC600629FF001729FBB27F00DB11D639FAA278D
:101AD600F00DB11DAA1F649F6627B00DA11D661FDC
:101AE600829F2227B00DA11D621F739FB00DA11DFD
:101AF600621F839FA00D611D221F749F3327A00DB7
:101B0600611D231F849F600D211D822F762F6A2F52
:101B160011249F5750409AF0F1F088234AF0EE0FB7
:101B2600FF1FBB1F661F771F881F91505040A9F7E4
:101B36009E3F510580F00C940E150C9408155F3FDE
:101B4600E4F3983ED4F3869577956795B795F79520
:101B5600E7959F5FC1F7FE2B880F911D9695879598
:041B660097F908954E
:101B6A00A2E0B0E0EBEBFDE00C948B131C014B01FF
:101B7A00FA01DB0112962D913C91139714964D9020
:101B8A005C9015978D919C9111979A8389831696EB
:101B9A006D907C90179737FD03C08D7F9A83898358
:101BAA000081118122813381448155816681778147
:101BBA00FE0131965F0188E0C82ED12C7201C40162
:101BCA000E94250B298124FF06C00197F301E80F23
:101BDA00F91F20E32083298123FF06C00197F3011F
:101BEA00E80FF91F20E22083E980FA80D4011896D1
:101BFA002D913C91199721503109281B390B860DDB
:101C0A00971DAC0160E88201C1010E94580C9C0139
:101C1A00F1018081918190FF08C0D40112968D91C3
:101C2A009C911397821793070CF4C9012296E2E15B
:041C3A000C94C21331
:101C3E0011C00E94F91438F00E94001520F039F4FA
:101C4E009F3F19F426F40C9423150EF4E095E7FB50
:101C5E000C940E15E92F0E94F11258F3BA17620771
:101C6E0073078407950720F079F4A6F50C940715F1
:101C7E000EF4E0950B2EBA2FA02D0B01B901900199
:101C8E000C01CA01A0011124FF27591B99F0593FDD
:101C9E0050F4503E68F11A16F040A22F232F342F25
:101CAE004427585FF3CF469537952795A795F04073
:101CBE005395C9F77EF41F16BA0B620B730B840B88
:101CCE00BAF09150A1F0FF0FBB1F661F771F881F40
:101CDE00C2F70EC0BA0F621F731F841F48F4879598
:101CEE0077956795B795F7959E3F08F0B0CF93958A
:0E1CFE00880F08F09927EE0F979587950895A7
:101D0C002F923F924F926F927F928F92AF92BF928F
:101D1C00CF92DF92EF92FF920F931F93CF93DF93AB
:101D2C00CDB7DEB727970FB6F894DEBF0FBECDBF89
:101D3C006C017B013901842E980185EF282E81E0FE
:101D4C00382E80E0482E87E0F101AE014F5F5F4FE7
:101D5C00DA01742D0E94A814F70102811381A4806A
:101D6C00B580E080F18061147104810419F43A01AA
:101D7C00F0E88F2E2115310529F4882DB3010E942E
:101D8C00F5139C0117FD04C00217130708F4980102
:101D9C008501682DA301C6010E94580C27960FB629
:101DAC00F894DEBF0FBECDBFDF91CF911F910F9185
:101DBC00FF90EF90DF90CF90BF90AF908F907F907F
:0A1DCC006F904F903F902F90089504
:101DD600A2E0B0E0E1EFFEE00C948B133C014B0176
:101DE600FA01DB0112962D913C91139714964D90B2
:101DF6005C9015978D919C9111979A83898316967D
:101E06002D903C90179737FD03C08D7F9A83898369
:101E160000811181228133814481558166817781D8
:101E2600FE0131965F018AE0C82ED12C7201C401F1
:101E36000E94250BE980FA80D40118962D913C91D9
:101E4600199721503109281B390B820D931DAC01BE
:101E560060E88201C3010E94580C9C01F301808155
:101E6600918190FF08C0D40112968D919C91139791
:101E7600821793070CF4C9012296E2E10C94C2136F
:101E86006F927F928F92EF92FF920F931F93CF9351
:101E9600DF93CDB7DEB761970FB6F894DEBF0FBEFE
:101EA600CDBFFE01319651E1DF011D925A95E9F74A
:101EB600A2E0B1E0BA83A9839C838B8377FF09C034
:101EC6008FE490E090936100809360008FEF9FEF26
:101ED60019C03901842E7C01615071097F836E839C
:101EE6009801682DA301CF010E94DD13488559850D
:101EF6002E813F814217530708F49A01F701E20F3A
:101F0600F31F108261960FB6F894DEBF0FBECDBFE9
:101F1600DF91CF911F910F91FF90EF908F907F905F
:041F26006F9008951B
:101F2A0088249924F401E401B0E49F93AA279A151E
:101F3A008B049C04ED05FE05CF05D007A10798F494
:101F4A00AD2FDC2FCF2FFE2FE92D982C892E982F1D
:101F5A00872F762F652F542F432F322F2227B850E1
:101F6A0031F7BF9127C01B2EBF91BB27220F331F0A
:101F7A00441F551F661F771F881F991F881C991CAD
:101F8A00EE1FFF1FCC1FDD1FAA1FBB1F8A149B0455
:101F9A00EC05FD05CE05DF05A007B10748F08A1854
:101FAA009B08EC09FD09CE09DF09A00BB10B2160E2
:101FBA001A94E1F62EF49401AF01BE01CD01000C92
:021FCA00089578
:101FCC00CF92DF92EF92DC0190E0292F30E0220FCC
:101FDC00331F6901032E000CEE086E2DA601415231
:101FEC005E4F6F4F6A01E62EFA018491E7FC808107
:101FFC0081110DC02F5F3F4F032E000C440B21525B
:10200C003E4F4F4FF901849147FD808124C0CD9004
:10201C00DD90EC901297F6014491E7FC408184131B
:10202C0015C02F5F3F4F032E000C440B21523E4F27
:10203C004F4FF901949147FD90815FEFC51AD50A76
:10204C00E50ACD92DD92EC92129701C09F5F9B3016
:0E205C0008F4BBCF892FEF90DF90CF9008954E
:10206A000F931F93CF93DF93DB012D913C9111972F
:10207A0030FF25C017964D915C91189715962D91B2
:10208A003C9116974217530778F41296ED91FC91FA
:10209A001397808312962D913C9113972F5F3F4F90
:1020AA0013963C932E93129717962D913C9118975D
:1020BA002F5F3F4F18963C932E93179715C01D9686
:1020CA00ED91FC911E97309719F48FEF9FEF0CC09A
:1020DA008B01EC010995892BC1F7F801878190855D
:1020EA00019690878783CE01DF91CF911F910F913F
:0220FA00089547
:1020FC00CF92DF92EF92CF93DF93CDB7DEB76C9791
:10210C000FB6F894DEBF0FBECDBF0E941A150F2E6E
:10211C00F9E2CF2EF1E0DF2EF0E0EF2EF02D8DE086
:10212C00F6019E012F5F3F4FD9017E2D0E94A8140E
:10213C00B90180E80E94CB1260E081E00E940B1490
:10214C0026E331E040E08FE0F901DE011E96742FAA
:10215C000E94A814BE01625F7F4F80E80E94CB12E0
:10216C0060E080E00E940B146C960FB6F894DEBF12
:10217C000FBECDBFDF91CF91EF90DF90CF90089540
:10218C00CF939B01482FF901849147FD80818032C8
:10219C00C9F1682F082E000C770B69507109653056
:1021AC00710580F18B3249F5A0E0B0E02F5F3F4F15
:1021BC004F4F02C0A0E0B0E080E090E0CAE0F9012F
:1021CC00649147FD6081062E000C770B60537109FA
:1021DC006A30710560F4C89FF001C99FF00D11249D
:1021EC002F5F3F4F4F4FCF01861B970BE8CFAB2B89
:1021FC0069F491958195910909C08D32D9F6A1E0C8
:10220C00B0E0D4CF2F5F3F4F4F4FBDCFCF9108954C
:10221C0040E050E0E1E0F0E09BB39F01042E02C0EF
:10222C00220F331F0A94E2F7209592239BBB9AB39B
:10223C0029232ABB4F5F5F4F4830510569F79AB38A
:10224C0021E030E0A901082E02C0440F551F0A946A
:10225C00E2F7542F509595239ABB9BB3492B4BBB5C
:10226C009AB36C5F7F4F02C0220F331F6A95E2F75F
:10227C00922B9ABB9BB3209529232BBB29B330E01F
:10228C0002C0359527958A95E2F781E090E020FF12
:08229C0002C080E090E008950B
:1022A40001978031910590F58A5C9F4FFC010C9455
:1022B400141582E090E0089583E090E0089588E1A9
:1022C40090E0089584E090E0089585E090E008951A
:1022D40086E090E0089588E190E0089587E090E03A
:1022E400089588E090E0089589E090E0089588E1F9
:1022F40090E0089588E190E0089580E090E00895EA
:1023040088E190E0089588E190E0089588E190E004
:08231400089581E090E00895B6
:10231C006F927F928F92CF92DF92EF920F931F93D7
:10232C00CF93DF938C016A01E62EE9013A01862EE8
:10233C00620E731E811C37FD8A94C614D704E80400
:10234C0079F0F6018491E7FC8081B801082E000C2D
:10235C00990B0E9435108FEFC81AD80AE80AEDCFF6
:10236C00CE01DF91CF911F910F91EF90DF90CF9025
:08237C008F907F906F9008958F
:10238400CF93DF93CDB7DEB72F970FB6F894DEBFA8
:102394000FBECDBF0E947C1281E090E09A838983B6
:1023A4009C838B8324EE37E03E832D832CE030E046
:1023B40038872F831A8619861C861B861D869F875D
:1023C4008E87CE0101960E94F411CE0101960E94DF
:1023D400CA0BCE0101960E94B20988EE93E00E94D6
:0423E4005412EFCFD1
:1023E800EF92FF920F931F93CF93DF937C010E948C
:1023F800A4120497F9F40E947E1000E010E00E94F5
:10240800A4124097B9F00E94A412089729F4C701B2
:102418000E946306EC0102C0C02FD12F0E94A412B3
:102428000C9731F4C7010E941205892B41F302C0B1
:10243800CD2B29F3DF91CF911F910F91FF90EF9052
:022448000895F5
:10244A000E94F91288F09F5798F0B92F9927B7512F
:10245A00B0F0E1F0660F771F881F991F1AF0BA953E
:10246A00C9F714C0B13091F00E940715B1E0089580
:10247A000C940715672F782F8827B85F39F0B93F72
:10248A00CCF3869577956795B395D9F73EF49095F1
:0E249A008095709561957F4F8F4F9F4F0895ED
:1024A800CF93DF93EC0183E083BF1CC020E034E2CC
:1024B80044EF57E46FE672E183E89AE30E941F1540
:1024C8009B01AC0160E070E080E893E40E94F214A4
:1024D8000E94251262BF88B7816088BFA89508B698
:1024E80000FEFDCF219710F713BEDF91CF9108951D
:1024F800B89AB99ABA9A80E190E00E94541260E0C2
:1025080080E30E948B1485E090E00E94541260E002
:1025180080E30E948B1481E090E00E94541260E0F6
:102528008CE30E946B1460E08CE00E946B1460E006
:1025380086E00E946B1460E081E00E946B140895AD
:102548000F931F93CF93DF9300E010E018C0BE01F4
:10255800C8010E940E11009749F0000F111F000FCB
:10256800111FC00FD11FCE0101960CC02196C43097
:10257800D10569F70F5F1F4F0430110519F0C0E04E
:0E258800D0E0E5CFDF91CF911F910F91089524
:10259600CF92DF92EF92A82FCB016C01EA2E2FEF9C
:1025A600C21AD20AE20AFC018491A7FD808188231F
:1025B60089F061E00E946B148FEFC81AD80AE80A06
:1025C600AE2DC6010197A109FC018491A7FD80816A
:0C25D6008111EFCFEF90DF90CF900895BF
:1025E20057FD9058440F551F59F05F3F71F04795C2
:1025F200880F97FB991F61F09F3F79F087950895A7
:10260200121613061406551FF2CF4695F1DF08C0C5
:10261200161617061806991FF1CF869571056105E2
:04262200089408957B
:10262600FA0160387105CCF0623871051CF0633828
:10263600710599F4A081B1819D012C5F3F4F3183D3
:1026460020834D915D916D917C91FC014083518376
:102656006283738381E090E0089580E090E00895BE
:1026660097FB10F8169400080F93083098F008505E
:10267600232F342F452F562F672F782F892F902DF4
:10268600F4CF0594979587957795679557954795D0
:0C269600379527950A95AAF70F91089533
:1026A20001978C30910580F4865D9F4FFC010C945C
:1026B20014158EE190E00895CB010E94A71381309A
:1026C20049F08CE190E0089580E090E008958FE178
:0A26D20090E008958DE190E0089576
:1026DC000F931F93CF93DF938C01EB010E941A157C
:1026EC00B80180E80E94CB1260E081E00E940B14DC
:1026FC00BE0180E80E94CB1260E080E00E940B14C7
:0A270C00DF91CF911F910F91089506
:102716002F923F924F925F926F927F928F929F92EB
:10272600AF92BF92CF92DF92EF92FF920F931F93D9
:10273600CF93DF93CDB7DEB7CA1BDB0B0FB6F8948A
:08274600DEBF0FBECDBF0994F8
:10274E009C0183709927892B91F4C90164E670E08E
:10275E000E941F14892B69F4C90160E971E00E947F
:10276E001F149C0181E0232B29F080E0089580E066
:06277E00089581E00895BA
:102784002A88398848885F846E847D848C849B84FD
:10279400AA84B984C884DF80EE80FD800C811B810B
:1027A400AA81B981CE0FD11D0FB6F894DEBF0FBE3A
:0627B400CDBFED01089508
:1027BA00A2E0B0E0E3EEF3E10C9499138C013A83C2
:1027CA0029839E012F5F3F4F0E940101F80120815A
:1027DA0024FF02C08FEF9FEF2296E4E00C94D013FF
:1027EA00CF92DF92EF926B01E82EA82FCB01FC016A
:1027FA002491A7FD2081222319F00196A11DF7CF6C
:0C280A008C199D09EF90DF90CF9008958D
:10281600CF93C62F98E2899FC00D112460E082E015
:102826000E946B14CC2331F060E084E10E946B14AB
:08283600C150D1F7CF910895C4
:10283E0097FB072E16F4009407D077FD09D00E945F
:10284E00331407FC05D03EF4909581959F4F089563
:08285E00709561957F4F08950C
:10286600AA1BBB1B51E107C0AA1FBB1FA617B707B0
:1028760010F0A61BB70B881F991F5A95A9F78095CC
:082886009095BC01CD010895FD
:10288E00A0E0B0E0EDE4F4E10C949B139E01265F12
:10289E003F4F4F81588569858D819E810E94B51469
:0628AE00E2E00C94D213DD
:1028B400092E0394000C11F4882352F0BB0F40F44A
:1028C400BF2B11F460FF04C06F5F7F4F8F4F9F4F8A
:0228D400089565
:1028D600C098C19A11BA90B3C29A000000000000D5
:1028E60011BA90B3C29899239CF30E948B14089551
:1028F6006095709580959095309540955095219569
:102906003F4F4F4F5F4F6F4F7F4F8F4F9F4F0895F2
:10291600662311F0C09A01C0C098C19882BB8FEFA0
:0E29260081BBC29A000000000000C298089514
:10293400689401C0E8948F929F92CF93DF930E9492
:0C294400950FDF91CF919F908F90089528
:10295000992777FD05C005900D920197E1F708953D
:0A29600001900D920197E1F7089530
:10296A000F931F9389019A01462F6FEF7FE70E9409
:08297A00430F1F910F91089516
:102982000024A7FD00942A17300540055005600574
:08299200700580059005089511
:10299A00EC010E942E150E942D15CE010E942F15C2
:0629AA00CE010E942B1576
:1029B000FC01480F591FE417F50711F06193FBCF95
:0229C000089578
:1029C2009C01215631092A31310510F48F7599275E
:0229D200089566
:1029D4009C01215431092A31310508F4806208959B
:0E29E4005058BB27AA270E941F0E0C945A14AD
:0E29F20000240A941616170618060906089502
:0E2A000000240A941216130614060506089503
:0E2A0E00E894BB2766277727CB0197F9089538
:0C2A1C0097F99F6780E870E060E0089583
:0C2A2800EE0FFF1F0590F491E02D0994C3
:0A2A340060E081E00E946B14089539
:082A3E000E944B0D0C945A1488
:062A46009FEF80EC0895F3
:062A4C0080E090E0089517
:042A52000C940000E0
:042A56000E94710069
:022A5A000895DD
:022A5C000895DB
:022A5E000895D9
:00000001FF
