:100000000C9430000C947E130C947E130C947E138D
:100010000C947E130C947E130C947E130C947E131C
:100020000C947E130C947E130C947E130C947E130C
:100030000C947E130C947E130C947E130C947E13FC
:100040000C947E130C947E130C947E130C947E13EC
:100050000C947E1300600062800062007A00270A20
:1000600011241FBECFE5D8E0DEBFCDBFE4E5F0E050
:1000700040E017C0B591A59135912591059107FDF7
:100080000CC095918591EF01F92FE82F05900D9205
:10009000A217B307D9F7FE0104C01D92A217B30738
:1000A000E1F7E036F40731F70E94B1040C94131322
:0400B000F894FFCFF2
:1000B400556E6C6F636B6564004E65772050617399
:1000C40073776F72643A0025302A645F004E6F20A4
:1000D40052657065617420506173733A004E6577A0
:1000E4002050617373205365743A0025302A6400EC
:1000F4004C6F636B656400496E636F727265637401
:1001040000546F6F204D616E790057726F6E6720D7
:0901140050617373636F646500B0
:10011D0068076C094C836A9074A07AC00080688867
:06012D0000846C820081D9
:07013300286E756C6C2900B9
:06013A00286E696C29002B
:10014000A3EAB0E0E6EAF0E00C94D4114C015901C6
:10015000C756DF4F488359836A83C959D040212C41
:10016000312C6E012BE8C20ED11C85E2782E2601BF
:1001700030E8632ECE018D569F4FC456DF4F9983D2
:100180008883CC59D0409C0140E8CF55DF4F28836D
:1001900039834A83C15AD040C756DF4F4881C95975
:1001A000D040C656DF4F5881CA59D040C556DF4FA0
:1001B0006881CB59D040FA01849167FD8081882302
:1001C00009F4C9C3CF57DF4F19821882C158D040F4
:1001D0008FEF9FEFCD57DF4F99838883C358D0406F
:1001E000CB57DF4F19821882C558D040A1E0B0E04C
:1001F000AC0FBD1FC957DF4FB983A883C758D04084
:10020000E0E8F0E0C757DF4FF983E883C958D040F2
:10021000CA01A62FE12CF12CFC012491A7FD20811D
:1002200021111BC0E114F10401F19701C4010E94E6
:10023000B90FC756DF4F88819981AA81C959D0402B
:100240008E0D9F1DA11DF7FCAA95C756DF4F888311
:100250009983AA83C959D04008C00196A11D2532AF
:1002600009F3FFEFEF1AFF0AD7CFC756DF4F888198
:100270009981AA81C959D040FC012491A7FD208110
:10028000253209F056C39C014A2F2F5F3F4F4F4F35
:10029000C256DF4F288339834A83CE59D040C75690
:1002A000DF4F288339834A83C959D040C756DF4F6F
:1002B00088819981AA81C959D040FC012491A7FD68
:1002C00020812B3241F4CF57DF4F28813981C1582B
:1002D000D04024600BC02C32CCF02D3259F5CF57D2
:1002E000DF4F28813981C158D0402160CF57DF4F7F
:1002F00039832883C158D0400196A11DC756DF4FCE
:1003000088839983AA83C959D040D0CF203241F441
:10031000CF57DF4F28813981C158D0402860E6CFC0
:10032000233291F4CF57DF4F28813981C158D04013
:100330002061DCCF203341F4CF57DF4F2881398152
:10034000C158D0402260D2CF2A3299F50196A11D22
:10035000C756DF4F88839983AA83C959D040D501F6
:10036000ED91FC911197CF0102968D939C93808122
:100370009181CB57DF4F99838883C558D04097FF31
:100380003EC0CF57DF4F28813981C158D040B1E0FE
:100390002B27CF57DF4F39832883C158D040919501
:1003A00081959109CB57DF4F99838883C558D040F9
:1003B00026C0BC018A2F0E94F40ECB57DF4F9983D1
:1003C0008883C558D040C756DF4F288139814A817C
:1003D000C959D040F901849147FD8081082E000C55
:1003E000990BC0970A9758F42F5F3F4F4F4FC7564E
:1003F000DF4F288339834A83C959D040E4CFCF5790
:10040000DF4F88819981C158D04080FF07C08D7F20
:10041000CF57DF4F99838883C158D040C756DF4FED
:1004200088819981AA81C959D040FC012491A7FDF6
:1004300020812E3209F058C0CD57DF4F1982188223
:10044000C358D0409C014A2F2F5F3F4F4F4FC75694
:10045000DF4F288339834A83C959D040F901549129
:1004600047FD50815A32D1F40296A11DC756DF4F85
:1004700088839983AA83C959D040D501ED91FC9115
:100480001197CF0102968D939C9380819181CD57D6
:10049000DF4F99838883C358D04026C0842FB90189
:1004A0000E94F40ECD57DF4F99838883C358D04004
:1004B000C756DF4F288139814A81C959D040F90197
:1004C000849147FD8081082E000C990BC0970A97F4
:1004D00058F42F5F3F4F4F4FC756DF4F2883398364
:1004E0004A83C959D040E4CFCE0187569F4F0E941E
:1004F0005C0E182FC756DF4F2881C959D040C65609
:10050000DF4F8881CA59D040C556DF4F9881CB59FB
:10051000D040E22FF82F849197FD8081082E000CA7
:10052000990B0E9439138936910509F45AC0B4F425
:100530008336910509F466C144F48532910509F4C6
:10054000A1C18136910529F1B3C18436910509F421
:1005500048C0883691050CF42DC1AAC18037910599
:1005600009F4CBC04CF48E36910509F419C18F36CD
:10057000910509F47CC09CC18537910509F454C0EC
:100580008837910509F496C08337910509F090C129
:1005900058C1612F70E0A501C6010E947911892B15
:1005A00009F4B7C1C756DF4F88819981AA81C9591B
:1005B000D0409C014A2F2F5F3F4F4F4FC756DF4F10
:1005C000288339834A83C959D040FC012491A7FD6F
:1005D0002081A601BE016F577F4FC4010E947B138B
:1005E00095C1612F70E0950141E050E0C6010E9485
:1005F0002C08892B09F48DC1C756DF4F888199815A
:10060000AA81C959D0400196A11DC756DF4F8883E2
:100610009983AA83C959D040A601BE016F577F4F65
:10062000C4010E946D0772C1612F70E0950140E026
:1006300050E0C6010E942C08892B09F46AC1C756F4
:10064000DF4F88819981AA81C959D0400196A11DA7
:10065000C756DF4F88839983AA83C959D040A60122
:10066000BE016F577F4FC4010E94610D4FC1612FC2
:1006700070E0950140E050E0C6010E942C08892BF3
:1006800009F447C1C756DF4F88819981AA81C959AA
:10069000D0400196A11DC756DF4F88839983AA8356
:1006A000C959D040A601BE016F577F4FC4010E94B7
:1006B0002B0C2CC1612F70E0950140E050E0C60189
:1006C0000E942C08892B09F424C1C756DF4F88816A
:1006D0009981AA81C959D0409C014A2F2F5F3F4F71
:1006E0004F4FC756DF4F288339834A83C959D040BB
:1006F000FC012491A7FD20814BC0950140E050E012
:1007000060EF70E0C6010E942C08892B09F401C13A
:10071000C756DF4F88819981AA81C959D040019677
:10072000A11DC756DF4F88839983AA83C959D0403A
:1007300086E02AE331E040E0F901DE01AD56BF4F2B
:10074000742F0E94D612D6012C9111963C911197CC
:1007500012964C91129713965C91139714966C9184
:10076000149715967C91159716968C911697179657
:100770009C91A0E00E94FB1251F400E010E0CF55E4
:10078000DF4F288139814A81C15AD040B9C028E75A
:10079000A601BE016F577F4FC4010E942D06B6C04F
:1007A000612F70E09501A1014E0D5F1DC6010E94F1
:1007B000550BAFC0612F70E0A501C6010E947911F1
:1007C000892B09F4A6C0C756DF4F88819981AA8179
:1007D000C959D0409C014A2F2F5F3F4F4F4FC756FA
:1007E000DF4F288339834A83C959D040FC012491C3
:1007F000A7FD2081A601BE016F577F4FC4010E9453
:100800007B1384C0103809F084C0C756DF4F88813D
:100810009981AA81C959D0400196A11DC756DF4FC1
:1008200088839983AA83C959D040D501ED91FC9161
:100830001197CF0102968D939C938081F60180835E
:100840005BC0103809F065C0C756DF4F88819981B9
:10085000AA81C959D0400196A11DC756DF4F888390
:100860009983AA83C959D040D501ED91FC91119784
:10087000CF0103968D939C9320813181428100E0CA
:1008800010E03EC0103809F044C0C756DF4F8881E1
:100890009981AA81C959D0400196A11DC756DF4F41
:1008A00088839983AA83C959D040F601708224C0F5
:1008B000D6017C92C256DF4F288139814A81CE59B8
:1008C000D040C756DF4F288339834A83C959D04067
:1008D000CF57DF4F19821882C158D040CB57DF4F16
:1008E00019821882C558D0408FEF9FEFCD57DF4F48
:1008F00099838883C358D04001E010E0462D9201CF
:10090000BE016F577F4FC4010E94FC0C8E0D9F1DCE
:1009100011C0C756DF4F88819981AA81C959D0403B
:100920000196A11DC756DF4F88839983AA83C959B1
:10093000D040C7017101E80EF91EE214F3044CF433
:100940008FE490E090936100809360008FEF9FEFC1
:1009500003C0170121CCC101CD55DF4FE2E10C945A
:02096000F01194
:10096200CF93DF93CDB7DEB76D970FB6F894DEBFA6
:100972000FBECDBF0E9475100E946A1360E080E036
:100982000E94391264EB70E080E00E94EB101D8E31
:100992001C8E1B8E1A8E212C312C0F2EFBEC6F2EEF
:1009A200F0E07F2EF0E08F2EF02DCE0101966C014B
:1009B200A0E88F8B988FA98F1D8A1E8A9F88588CDA
:1009C200498C0E946F138F30910509F0A9C060E035
:1009D20080E00E9439126DEB70E080E00E94EB1023
:1009E200E12CF12C00E010E00E946F138A30910597
:1009F20068F59801220F331F000F111F000F111FFE
:100A0200000F111F020F131F080F191F9FEFE91A82
:100A1200F90A1F930F93FF92EF928F927F926F9238
:100A2200DF92CF920E94751260E081E00E9439123B
:100A32006F89788D898D0E94EB1084EC99E00E9479
:100A42009D100FB6F894DEBF0FBECDBF94E0E9163D
:100A5200F10454F20215130551F08A8D9B8D08178B
:100A6200190729F08C8D9D8D08171907D9F40E945A
:100A72006A1360E080E00E94391261ED70E080E06C
:100A82000E94EB1080E197E20E949D100E946A137F
:100A920060E080E00E94391264EB70E080E00E9426
:100AA200EB108FCF0E946A1360E080E00E9439123F
:100AB20061EE70E080E00E94EB1060E081E00E9455
:100AC20039121F930F93FF92EF928FEE90E0A0E006
:100AD200AF939F938F93DF92CF920E9475126F898B
:100AE200788D898D0E94EB1080E197E20E949D1023
:100AF2000E946A1360E080E00E94391264EB70E0A9
:100B020080E00E94EB100FB6F894DEBF0FBECDBF9F
:100B12008A8D9B8D9D8F8C8F3B8E2A8E180151CF93
:100B22000E9709F04ECF0E946A1360E080E00E94A7
:100B3200391264EF70E080E00E94EB100E943411E1
:100B4200A12CB12CE12CF12C0D891E890E946F136E
:100B52008A30910568F59801220F331F000F111F8B
:100B6200000F111F000F111F020F131F080F191F73
:100B72009FEFE91AF90A1F930F93FF92EF928F9258
:100B82007F926F92DF92CF920E94751260E081E0B5
:100B92000E943912692D752D842D0E94EB1084EC70
:100BA20099E00E949D100FB6F894DEBF0FBECDBF34
:100BB20094E0E916F10454F20215130571F40E944F
:100BC2006A1360E080E00E94391264EB70E080E01A
:100BD2000E94EB100E941111F4CEAFEFAA1ABA0ACA
:100BE2000E946A1360E080E00E9439126BEF70E0AD
:100BF20080E00E94EB100E94B71188E893E10E9406
:100C02009D1023E0A216B104D9F40E946A1365E094
:100C120071E080E00E94EB1060E081E00E943912F6
:100C22006EE071E080E00E94EB1000E510E088E8E1
:100C320093E10E949D1001501109C9F7A12CB12C1A
:100C42000E946A1360E080E00E94391264EF70E053
:080C520080E00E94EB1076CF58
:100C5A00A4E1B0E0E3E3F6E00C94D41198878F8323
:100C6A007A8369835C8B4B8B122FDB011296ED9191
:100C7A00FC91139714962D913C9115973E832D83E1
:100C8A00ED90FC90119716962D903C901797F7FDD2
:100C9A0003C0E894E1F802C0E1E0F0E0C701807126
:100CAA0099279A878987E4FE1FC0AB89BC892C9152
:100CBA0011963C91119712964C91129713965C914A
:100CCA00139714966C91149715967C91159716960E
:100CDA008C91169717969C91A0E00E94FB1221F026
:100CEA008D819E81029702C08D819E819701287015
:100CFA0033273C872B87E3FC0197AB89BC894C904F
:100D0A0011965C90119712966C90129713967C909C
:100D1A00139714968C90149715969C90159716967F
:100D2A00AC9016971796BC90A981BA811896CD9067
:100D3A00DC901997B1E0CB1AD108D101AC0DBD1DD9
:100D4A001C929C838B839F01281B390B3E872D871E
:100D5A00C70182709927988B8F87812F012E000CEB
:100D6A00990BDC01A154B109BA8BA98B32E0C316E5
:100D7A00D10434F489859A85892B09F04CC073C053
:100D8A009201A301B401C501A0E00E94FB1281F106
:100D9A00B1E0CB1AD108C2018F7099278A30910528
:100DAA0014F4C09602C0895A9F4FE989FA897A9742
:100DBA0048F49C012062215631092A31310510F488
:100DCA000E943013F101EC0DFD1D80832B813C81C3
:100DDA00215031093C832B839201A301B401C5013F
:100DEA0004E00E949B1129013A014B015C01BECF2C
:100DFA008D859E85AB81BC818A0F9B1F18161906AB
:100E0A003CF21A161B060CF0B5CFEF85F889EF2BCA
:100E1A0009F0BECFAFCFAB89BC892C9111963C911A
:100E2A00119712964C91129713965C9113971496F8
:100E3A006C91149715967C91159716968C91169726
:100E4A0017969C91A0E00E94FB1269F0F101EC0D4B
:100E5A00FD1D31971083B2E0CB1AD108F101EC0DD8
:100E6A00FD1D80E38083EB85FC85EF2B41F0F1E0EB
:100E7A00CF1AD108F101EC0DFD1D80E28083A98112
:100E8A00BA8118962D913C911997215031092C1944
:100E9A003D09C20CD31CA60160E80D811E818F8119
:100EAA0098850E94CE0A9C01EF81F8858081918104
:100EBA0090FF09C0A981BA8112968D919C911397CE
:100ECA00821793070CF4C9016496E2E10C94F011BD
:100EDA00ADE0B0E0E3E7F7E00C94D4119A87898794
:100EEA007C836B83FA01DB011296CD90DC90139719
:100EFA0014968D919C9115979E838D83ED90FC900D
:100F0A001197FA82E98216960D90BC91A02DB887A6
:100F1A00AF832080318042805380648075808680D0
:100F2A0097808101B42DF52DE62D7B868C869D86D2
:100F3A009101A201B301C401A0E00E94FB124CF48A
:100F4A000E94A9128901B42FF52FE62F7B878C877F
:100F5A009D87D7FC04C0E894E1F8FA82E9829101FE
:100F6A00A201B301C401A0E0ED80FE800E94FB1241
:100F7A001CF0898182FF04C081E0E81AF10805C0EB
:100F8A0083FF03C091E0E91AF108CE0101965C01E2
:100F9A008AE0C82ED12C2B2F3F2F4E2F5B856C85D4
:100FAA007D858B819C810E949009FC019101A2019F
:100FBA00B301C401A0E00E94FB121CF0898182FFE8
:100FCA0012C031970F8118850E0F1F1F9101A201C0
:100FDA00B301C401A0E00E94FB1214F08BE201C02D
:100FEA008DE2D80108C083FF07C03197AF81B88569
:100FFA00AE0FBF1F80E28C93E980FA80AB81BC817F
:10100A0018962D913C911997215031092E1B3F0BAF
:10101A008F819885E80FF91FAF0160E80D811E8165
:10102A0089859A850E94CE0A9C01A985BA858D91E7
:10103A009C9190FF07C0EB81FC818281938182178A
:0E104A0093070CF4C9012D96E2E10C94F0110D
:101058000F931F93CF93DF93FC01D9016838710573
:1010680031F194F461387105B1F12CF460387105EF
:1010780009F478C09FC06238710509F459C0643812
:10108800710509F46FC096C0603A710509F448C04B
:101098002CF46039710509F44BC08CC0603C7105B3
:1010A80009F476C0603F710509F472C083C0CD9120
:1010B800DC911197CE0102968D939C93452B39F0C4
:1010C8009881892F880F880B908381835BC08881E2
:1010D8008083118268C0CD91DC911197CE0104966E
:1010E8008D939C93452B99F088819981AA81BB8126
:1010F800AC01BD01770F440B542FBA018083918353
:10110800A283B383448345834683478328C00881E9
:1011180019812A813B81008311832283338345C04F
:10112800CD91DC911197CE0102968D939C9323C0AB
:10113800CD91DC911197CE0108968D939C9378817F
:1011480069815A814B813C812D819E818F81708379
:10115800618352834383348325839683878381E025
:1011680090E02AC0CD91DC911197CE0102968D9323
:101178009C93452BA1F099812881892F880F880B92
:101188002083918382838383848385838683E6CFC8
:10119800CD91DC911197CE0102968D939C93088195
:1011A8001981008311831282138214821582168298
:1011B8001782D5CF80E090E0DF91CF911F910F91FA
:0211C800089588
:1011CA002F923F924F925F926F927F928F929F924D
:1011DA00AF92BF92CF92DF92EF92FF920F931F933B
:1011EA00CF93DF93CDB7DEB72A970FB6F894DEBF59
:1011FA000FBECDBF2B013C01B3018FEF68167806F5
:10120A0061F420ED37E0249DC001259D900D349DA9
:10121A00900D11240E949D1065C088E893E10E94F8
:10122A004D12072E000C880B990B0E947E0F0E940C
:10123A00350A0E9448137A836983649CC001659CBD
:10124A00900D749C900D11246AE070E00E944D127A
:10125A00660F771F6B837C83872F880F880B89879C
:10126A008D838E838F838887282E262F372F482FAA
:10127A00582F642F742F842F922DA0E00E94FB1206
:10128A0089F184F1912C1A86312C412C512C612C34
:10129A00712C812CC39A89819A810E949D10C398CE
:1012AA0089819A810E949D10292D3A85432D542DBA
:1012BA00652D762D872D982DA1E00E94EF12922E92
:1012CA003A87342E452E562E672E782E892EAB80DD
:1012DA00BC80C984DD80EE80FF800885122D0E94C3
:1012EA001E13C4F22A960FB6F894DEBF0FBECDBF06
:1012FA00DF91CF911F910F91FF90EF90DF90CF90E8
:10130A00BF90AF909F908F907F906F905F904F901B
:06131A003F902F900895A2
:10132000A2E1B0E0E6E9F9E00C94D411FC010A8BEB
:101330001B832C83732E642E552E462E7D83CC86E4
:10134000D886BF82AE82868197819B878A87D501A6
:101350004D915C91228133818085918501971C019B
:1013600037FF02C021E030E0EA85FB85E80FF91F76
:1013700010824701E1E0F0E0FA83E983C9018E19A8
:101380009F099E878D87DA01A270BB27B88BAF8734
:10139000B885BB0FBB0BB98B1214130474F0A98171
:1013A000BA81AB2B09F05CC0AE81BF818D919C915D
:1013B00011978F7E8D939C9353C02A893B814C81DA
:1013C000572D662D752D842D9D81A0E00E94FB1266
:1013D000B1F1E1E02E1A3108FC85F987AF2EB8840F
:1013E000C988DC2CEC2CFC2C0C2D1C2D2A893B8173
:1013F0004C81572D662D752D842D9D810E94C8121C
:10140000C90129839A83EA85FB85E20DF31D805D7E
:10141000808381E0881A91082A893B814C81572D6D
:10142000662D752D842D9D810E94CA122A8B3B83C7
:101430004C83752E662E572E482E9D83ADCF8D85FD
:101440009E85880D991D181619061CF2181419048A
:101450000CF0A5CFEF85F889EF2B09F0BACF9FCF1D
:0A146000C1016296E2E10C94F01164
:10146A004F925F926F927F928F929F92AF92BF92AA
:10147A00CF92DF92EF92FF92CF93DF93CDB7DEB791
:10148A0028970FB6F894DEBF0FBECDBF6B017C0163
:10149A00DC01CB0147E1B695A795979587954A95C3
:1014AA00D1F799278F579109873191059CF597FDB7
:1014BA0036C088248A94982C3FE7A32EB12C04C006
:1014CA00B594A794979487948A95D2F7D501C401C5
:1014DA008C219D21AE21BF21892B8A2B8B2BD1F008
:1014EA0020E030E040E85BE7C701B6010E94421302
:1014FA006D837E838F839887F7FC04C0C80CD91C40
:10150A00EA1CFB1C80949094A094B094C820D92023
:10151A00EA20FB205C2D4D2D3E2D2F2D21C020E0F1
:10152A0030E040E85BE7C701B6010E9442136983D5
:10153A007A838B839C83F7FC0FC0D701C601880F7F
:10154A00991FAA1FBB1F892B8A2B8B2B19F350E0DB
:10155A0040E030E82FE304C050E040E030E020E80B
:10156A00652F742F832F922F28960FB6F894DEBF1B
:10157A000FBECDBFDF91CF91FF90EF90DF90CF905C
:10158A00BF90AF909F908F907F906F905F904F9099
:02159A000895B2
:10159C002F923F924F926F927F928F92AF92BF9207
:1015AC00CF92DF92EF92FF920F931F93CF93DF9323
:1015BC00CDB7DEB766970FB6F894DEBF0FBECDBFC2
:1015CC005C013A01862E6901C701817099279C8BB9
:1015DC008B8BE0FC1DC020173107D4F47801EC187C
:1015EC00FD08FE8AED8AA70191E1E916F10410F0DD
:1015FC0040E150E060E270E0CE0101969A8B898B5D
:10160C000E94271389899A891C0120E8422E0BC05D
:10161C009601682DA301C5010E94B90FC016D10611
:10162C00ECF2C60125C090E1E916F10458F020E176
:10163C0030E0642DA101C5010E94B90F80E1E81AC8
:10164C00F108F1CF2D893E892F70332789899A892A
:10165C00AC0160E8C5010E94B90F8B899C89892B6C
:10166C0031F49601682DA301C5010E94B90FC80180
:10167C0066960FB6F894DEBF0FBECDBFDF91CF914B
:10168C001F910F91FF90EF90DF90CF90BF90AF9094
:0E169C008F907F906F904F903F902F90089509
:1016AA00CF93DF93DC01F90164387105D9F164F451
:1016BA006138710521F16238710509F440C060385A
:1016CA00710509F054C02EC060397105C1F184F466
:1016DA006838710509F04BC0C081D181CE010296EC
:1016EA0091838083E881F981ED93FC9340833CC028
:1016FA00603A7105B9F0603C7105A1F038C0C0814B
:10170A00D181CE01029691838083E881F981ED939C
:10171A00FC93052E000C660B770B40835183628382
:10172A00738322C0C081D181CE01029691838083C6
:10173A00E881F981ED93FC935183408315C0C08100
:10174A00D181CE01029691838083E881F981ED935C
:10175A00FC9351834083852F880F880B8283838370
:10176A00848385838683878381E090E002C080E05A
:08177A0090E0DF91CF9108958A
:101782000FC00E944F1338F00E94561320F0952389
:1017920011F00C9464130C94781311240C945E13BE
:1017A2000E94571170F3959FC1F3950F50E0551F9A
:1017B200629FF001729FBB27F00DB11D639FAA27A4
:1017C200F00DB11DAA1F649F6627B00DA11D661FF3
:1017D200829F2227B00DA11D621F739FB00DA11D14
:1017E200621F839FA00D611D221F749F3327A00DCE
:1017F200611D231F849F600D211D822F762F6A2F6A
:1018020011249F5750409AF0F1F088234AF0EE0FCE
:10181200FF1FBB1F661F771F881F91505040A9F7FB
:101822009E3F510580F00C9464130C945E135F3F4D
:10183200E4F3983ED4F3869577956795B795F79537
:10184200E7959F5FC1F7FE2B880F911D96958795AF
:0418520097F9089565
:10185600A2E0B0E0E1E3FCE00C94D4111C014B01E2
:10186600FA01DB0112962D913C91139714964D9037
:101876005C9015978D919C9111979A838983169602
:101886006D907C90179737FD03C08D7F9A8389836F
:10189600008111812281338144815581668177815E
:1018A600FE0131965F0188E0C82ED12C7201C40179
:1018B6000E949009298124FF06C00197F301E80FD1
:1018C600F91F20E32083298123FF06C00197F30136
:1018D600E80FF91F20E22083E980FA80D4011896E8
:1018E6002D913C91199721503109281B390B860DF2
:1018F600971DAC0160E88201C1010E94CE0A9C01DD
:10190600F1018081918190FF08C0D40112968D91DA
:101916009C911397821793070CF4C9012296E2E172
:041926000C94F0111C
:10192A0011C00E944F1338F00E94561320F039F468
:10193A009F3F19F426F40C9478130EF4E095E7FB14
:10194A000C946413E92F0E94571158F3BA176207CF
:10195A0073078407950720F079F4A6F50C945D13B4
:10196A000EF4E0950B2EBA2FA02D0B01B9019001B0
:10197A000C01CA01A0011124FF27591B99F0593FF4
:10198A0050F4503E68F11A16F040A22F232F342F3C
:10199A004427585FF3CF469537952795A795F0408A
:1019AA005395C9F77EF41F16BA0B620B730B840B9F
:1019BA00BAF09150A1F0FF0FBB1F661F771F881F57
:1019CA00C2F70EC0BA0F621F731F841F48F48795AF
:1019DA0077956795B795F7959E3F08F0B0CF9395A1
:0E19EA00880F08F09927EE0F979587950895BE
:1019F8002F923F924F926F927F928F92AF92BF92A7
:101A0800CF92DF92EF92FF920F931F93CF93DF93C2
:101A1800CDB7DEB727970FB6F894DEBF0FBECDBFA0
:101A28006C017B013901842E980183E3282E81E023
:101A3800382E80E0482E87E0F101AE014F5F5F4FFE
:101A4800DA01742D0E94D612F70102811381A48055
:101A5800B580E080F18061147104810419F43A01C1
:101A6800F0E88F2E2115310529F4882DB3010E9445
:101A780023129C0117FD04C00217130708F49801EC
:101A88008501682DA301C6010E94CE0A27960FB6CC
:101A9800F894DEBF0FBECDBFDF91CF911F910F919C
:101AA800FF90EF90DF90CF90BF90AF908F907F9096
:0A1AB8006F904F903F902F9008951B
:101AC200A2E0B0E0E7E6FDE00C94D4113C014B014A
:101AD200FA01DB0112962D913C91139714964D90C9
:101AE2005C9015978D919C9111979A838983169694
:101AF2002D903C90179737FD03C08D7F9A83898381
:101B020000811181228133814481558166817781EF
:101B1200FE0131965F018AE0C82ED12C7201C40108
:101B22000E949009E980FA80D40118962D913C9187
:101B3200199721503109281B390B820D931DAC01D5
:101B420060E88201C3010E94CE0A9C01F3018081F8
:101B5200918190FF08C0D40112968D919C911397A8
:101B6200821793070CF4C9012296E2E10C94F0115A
:101B72006F927F928F92EF92FF920F931F93CF9368
:101B8200DF93CDB7DEB761970FB6F894DEBF0FBE15
:101B9200CDBFFE01319651E1DF011D925A95E9F761
:101BA200A2E0B1E0BA83A9839C838B8377FF09C04B
:101BB2008FE490E090936100809360008FEF9FEF3D
:101BC20019C03901842E7C01615071097F836E83B3
:101BD2009801682DA301CF010E940B1248855985F7
:101BE2002E813F814217530708F49A01F701E20F51
:101BF200F31F108261960FB6F894DEBF0FBECDBF01
:101C0200DF91CF911F910F91FF90EF908F907F9076
:041C12006F90089532
:101C160088249924F401E401B0E49F93AA279A1535
:101C26008B049C04ED05FE05CF05D007A10798F4AB
:101C3600AD2FDC2FCF2FFE2FE92D982C892E982F34
:101C4600872F762F652F542F432F322F2227B850F8
:101C560031F7BF9127C01B2EBF91BB27220F331F21
:101C6600441F551F661F771F881F991F881C991CC4
:101C7600EE1FFF1FCC1FDD1FAA1FBB1F8A149B046C
:101C8600EC05FD05CE05DF05A007B10748F08A186B
:101C96009B08EC09FD09CE09DF09A00BB10B2160F9
:101CA6001A94E1F62EF49401AF01BE01CD01000CA9
:021CB60008958F
:101CB800CF92DF92EF92DC0190E0292F30E0220FE3
:101CC800331F6901032E000CEE086E2DA601435E3A
:101CD8005E4F6F4F6A01E62EFA018491E7FC80811E
:101CE80081110DC02F5F3F4F032E000C440B235E64
:101CF8003E4F4F4FF901849147FD808124C0CD901C
:101D0800DD90EC901297F6014491E7FC4081841332
:101D180015C02F5F3F4F032E000C440B235E3E4F30
:101D28004F4FF901949147FD90815FEFC51AD50A8D
:101D3800E50ACD92DD92EC92129701C09F5F9B302D
:0E1D480008F4BBCF892FEF90DF90CF90089565
:101D56000F931F93CF93DF93DB012D913C91119746
:101D660030FF25C017964D915C91189715962D91C9
:101D76003C9116974217530778F41296ED91FC9111
:101D86001397808312962D913C9113972F5F3F4FA7
:101D960013963C932E93129717962D913C91189774
:101DA6002F5F3F4F18963C932E93179715C01D969D
:101DB600ED91FC911E97309719F48FEF9FEF0CC0B1
:101DC6008B01EC010995892BC1F7F8018781908574
:101DD600019690878783CE01DF91CF911F910F9156
:021DE60008955E
:101DE800CF939B01482FF901849147FD8081803270
:101DF800C9F1682F082E000C770B695071096530FE
:101E0800710580F18B3249F5A0E0B0E02F5F3F4FBC
:101E18004F4F02C0A0E0B0E080E090E0CAE0F901D6
:101E2800649147FD6081062E000C770B60537109A1
:101E38006A30710560F4C89FF001C99FF00D112444
:101E48002F5F3F4F4F4FCF01861B970BE8CFAB2B30
:101E580069F491958195910909C08D32D9F6A1E06F
:101E6800B0E0D4CF2F5F3F4F4F4FBDCFCF910895F4
:101E78009C01255031092330310510F4019708954C
:101E88009C01295031092330310510F40297089537
:101E980084309105A9F088309105A9F08C3091051E
:101EA800A9F080319105A9F08D309105A9F08E3007
:101EB8009105A9F08F309105A9F00097B1F0089528
:101EC8008AE090E008958BE090E008958CE090E03F
:101ED80008958DE090E008958EE090E0089580E008
:101EE80090E008958FE090E008958FEF9FEF0895B8
:101EF800E89409C097FB3EF490958095709561959C
:101F08007F4F8F4F9F4F9923A9F0F92F96E9BB2751
:101F18009395F695879577956795B795F111F8CFCD
:101F2800FAF4BB0F11F460FF1BC06F5F7F4F8F4F38
:101F38009F4F16C0882311F096E911C0772321F02E
:101F48009EE8872F762F05C0662371F096E8862FC6
:101F580070E060E02AF09A95660F771F881FDAF71D
:0A1F6800880F9695879597F9089564
:101F72006F927F928F92CF92DF92EF920F931F9385
:101F8200CF93DF938C016A01E62EE9013A01862E96
:101F9200620E731E811C37FD8A94C614D704E804AE
:101FA20079F0F6018491E7FC8081B801082E000CDB
:101FB200990B0E94AB0E8FEFC81AD80AE80AEDCF30
:101FC200CE01DF91CF911F910F91EF90DF90CF90D3
:081FD2008F907F906F9008953D
:101FDA000E945F1188F09F5798F0B92F9927B7513F
:101FEA00B0F0E1F0660F771F881F991F1AF0BA95B3
:101FFA00C9F714C0B13091F00E945D13B1E00895A1
:10200A000C945D13672F782F8827B85F39F0B93F92
:10201A00CCF3869577956795B395D9F73EF4909565
:0E202A008095709561957F4F8F4F9F4F089561
:10203800CF93C82F15BA14BA45B381E090E09C013C
:102048000C2E02C0220F331F0A94E2F7242B25BB63
:1020580024B36C5F7F4F02C0880F991F6A95E2F71F
:10206800822B84BB8FE090E00E949D1023B330E068
:1020780002C035952795CA95E2F781E090E020FFE8
:0A20880002C080E090E0CF910895BF
:102092006F927F928F92CF92DF92EF92BB9A141639
:1020A2001506DCF43B01882E6B01E82E440F551F08
:1020B200440F551F640E751E811C57FD8A94F6014C
:1020C2005E2D0E94E3120E94E50884E0C80ED11C36
:1020D200E11CC614D704E80491F7EF90DF90CF908B
:0820E2008F907F906F9008952C
:1020EA00B89AB99ABA9A80E190E00E949D1060E08D
:1020FA0080E30E94B91285E090E00E949D1060E0A2
:10210A0080E30E94B91281E090E00E949D1060E095
:10211A008CE30E94991260E08CE00E94991260E0C0
:10212A0086E00E94991260E081E00E949912089567
:10213A00CF93DF93EC0182E083BF1BC020E034E23F
:10214A0044E759E467E177EB81ED98E30E94741361
:10215A009B01AC0160E070E080E893E40E944113C7
:10216A000E94ED0F62BF88B7816088BF08B600FE83
:0E217A00FDCF219718F713BEDF91CF91089586
:102188000F931F93CF93DF9300E010E018C0BE01B8
:10219800C8010E941C10009749F0000F111F000F82
:1021A800111FC00FD11FCE0101960CC02196C4305B
:1021B800D10569F70F5F1F4F0430110519F0C0E012
:0E21C800D0E0E5CFDF91CF911F910F910895E8
:1021D600CF92DF92EF92A82FCB016C01EA2E2FEF60
:1021E600C21AD20AE20AFC018491A7FD80818823E3
:1021F60089F061E00E9499128FEFC81AD80AE80A9E
:10220600AE2DC6010197A109FC018491A7FD80812D
:0C2216008111EFCFEF90DF90CF90089582
:10222200CF93DF93CDB7DEB72C970FB6F894DEBF0E
:102232000FBECDBF8CE0E2E6F0E0BE016F5F7F4FE4
:10224200DB0101900D928A95E1F780E843E050E0CE
:102252000E9449102C960FB6F894DEBF0FBECDBF78
:06226200DF91CF91089509
:10226800CF93DF93CDB7DEB72C970FB6F894DEBFC8
:102278000FBECDBF8CE0EEE6F0E0BE016F5F7F4F92
:10228800DB0101900D928A95E1F780E843E050E088
:102298000E9449102C960FB6F894DEBF0FBECDBF32
:0622A800DF91CF910895C3
:1022AE0057FD9058440F551F59F05F3F71F04795F9
:1022BE00880F97FB991F61F09F3F79F087950895DE
:1022CE00121613061406551FF2CF4695F1DF08C0FD
:1022DE00161617061806991FF1CF8695710561051A
:0422EE0008940895B3
:1022F200FA0160387105CCF0623871051CF0633860
:10230200710599F4A081B1819D012C5F3F4F31830A
:1023120020834D915D916D917C91FC0140835183AD
:102322006283738381E090E0089580E090E00895F5
:1023320097FB10F8169400080F93083098F0085095
:10234200232F342F452F562F672F782F892F902D2B
:10235200F4CF059497958795779567955795479507
:0C236200379527950A95AAF70F9108956A
:10236E00CF93DF9300D000D0CDB7DEB784E090E0FE
:10237E009A8389838CED90E09C838B83BE016F5F83
:10238E007F4F80E841E050E00E9449100F900F907F
:0A239E000F900F90DF91CF9108958A
:1023A8002F923F924F925F926F927F928F929F925D
:1023B800AF92BF92CF92DF92EF92FF920F931F934B
:1023C800CF93DF93CDB7DEB7CA1BDB0B0FB6F894FC
:0823D800DEBF0FBECDBF09946A
:1023E0002A88398848885F846E847D848C849B84A5
:1023F000AA84B984C884DF80EE80FD800C811B81B3
:10240000AA81B981CE0FD11D0FB6F894DEBF0FBEE1
:06241000CDBFED010895AF
:10241600A2E0B0E0E1E1F2E10C94E2118C013A8332
:1024260029839E012F5F3F4F0E94A000F801208163
:1024360024FF02C08FEF9FEF2296E4E00C94FE117A
:10244600CF92DF92EF926B01E82EA82FCB01FC0111
:102456002491A7FD2081222319F00196A11DF7CF13
:0C2466008C199D09EF90DF90CF90089535
:10247200CF93C62F98E2899FC00D112460E082E0BD
:102482000E949912CC2331F060E084E10E949912FB
:08249200C150D1F7CF9108956C
:10249A0097FB072E16F4009407D077FD09D00E9407
:1024AA00611207FC05D03EF4909581959F4F0895DF
:0824BA00709561957F4F0895B4
:1024C200AA1BBB1B51E107C0AA1FBB1FA617B70758
:1024D20010F0A61BB70B881F991F5A95A9F7809574
:0824E2009095BC01CD010895A5
:1024EA00A0E0B0E0EBE7F2E10C94E4119E01265F74
:1024FA003F4F4F81588569858D819E810E940713C0
:06250A00E2E00C94001257
:10251000092E0394000C11F4882352F0BB0F40F4F1
:10252000BF2B11F460FF04C06F5F7F4F8F4F9F4F31
:0225300008950C
:10253200C098C19A11BA90B3C29A0000000000007C
:1025420011BA90B3C29899239CF30E94B9120895CC
:102552006095709580959095309540955095219510
:102562003F4F4F4F5F4F6F4F7F4F8F4F9F4F08959A
:10257200662311F0C09A01C0C098C19882BB8FEF48
:0E25820081BBC29A000000000000C2980895BC
:10259000689401C0E8948F929F92CF93DF930E943A
:0C25A0000B0EDF91CF919F908F9008955B
:1025AC00992777FD05C005900D920197E1F70895E5
:0A25BC0001900D920197E1F70895D8
:1025C60057FD05C065917591859195910895619125
:0825D60071918191919108952A
:1025DE000024A7FD00942A0F301D401D501D601DC4
:0825EE00701D801D901D089571
:1025F6000024A7FD00942A17300540055005600504
:082606007005800590050895A0
:10260E000F931F9389019A01462F6FEF7FE70E9468
:08261E00B90D1F910F91089501
:10262600EC010E9483130E948213CE010E94841340
:06263600CE010E9480139A
:10263C002A153B054C055D056E057F058007910746
:02264C000895EF
:10264E00FC01480F591FE417F50711F06193FBCFFA
:02265E000895DD
:102660009C01215631092A31310510F48F759927C3
:022670000895CB
:102672009C01215431092A31310508F48062089500
:0E2682005058BB27AA270E94950C0C94881272
:0E2690000E94ED0F6894B1110C945E13089532
:0E269E0000240A941616170618060906089559
:0E26AC0000240A94121613061406050608955B
:0E26BA00E894BB2766277727CB0197F9089590
:0C26C80097F99F6780E870E060E00895DB
:0A26D40060E081E00E949912089571
:0A26DE000E94C4100E943C0F0895F2
:0826E8000E94C10B0C94881242
:0626F0009FEF80EC08954D
:0626F60080E090E0089571
:0426FC000C9400003A
:042700000E945800DB
:02270400089536
:02270600089534
:02270800089532
:10270A0001000B0201004B02010093020100930237
:08271A0001004B0201000B025B
:00000001FF
